{
  "contractName": "Cryptomon",
  "abi": [
    {
      "inputs": [
        {
          "internalType": "address",
          "name": "_market",
          "type": "address"
        }
      ],
      "payable": false,
      "stateMutability": "nonpayable",
      "type": "constructor"
    },
    {
      "anonymous": false,
      "inputs": [
        {
          "indexed": true,
          "internalType": "address",
          "name": "owner",
          "type": "address"
        },
        {
          "indexed": true,
          "internalType": "address",
          "name": "approved",
          "type": "address"
        },
        {
          "indexed": true,
          "internalType": "uint256",
          "name": "tokenId",
          "type": "uint256"
        }
      ],
      "name": "Approval",
      "type": "event"
    },
    {
      "anonymous": false,
      "inputs": [
        {
          "indexed": true,
          "internalType": "address",
          "name": "owner",
          "type": "address"
        },
        {
          "indexed": true,
          "internalType": "address",
          "name": "operator",
          "type": "address"
        },
        {
          "indexed": false,
          "internalType": "bool",
          "name": "approved",
          "type": "bool"
        }
      ],
      "name": "ApprovalForAll",
      "type": "event"
    },
    {
      "anonymous": false,
      "inputs": [
        {
          "indexed": true,
          "internalType": "uint256",
          "name": "parent1",
          "type": "uint256"
        },
        {
          "indexed": true,
          "internalType": "uint256",
          "name": "parent2",
          "type": "uint256"
        },
        {
          "indexed": false,
          "internalType": "uint256",
          "name": "endTime",
          "type": "uint256"
        }
      ],
      "name": "Breeding",
      "type": "event"
    },
    {
      "anonymous": false,
      "inputs": [
        {
          "indexed": false,
          "internalType": "address",
          "name": "attacker",
          "type": "address"
        },
        {
          "indexed": false,
          "internalType": "address",
          "name": "defender",
          "type": "address"
        },
        {
          "indexed": false,
          "internalType": "uint256",
          "name": "attacker_token",
          "type": "uint256"
        },
        {
          "indexed": false,
          "internalType": "uint256",
          "name": "defender_token",
          "type": "uint256"
        },
        {
          "indexed": false,
          "internalType": "bool",
          "name": "win",
          "type": "bool"
        }
      ],
      "name": "Fighted",
      "type": "event"
    },
    {
      "anonymous": false,
      "inputs": [
        {
          "indexed": true,
          "internalType": "uint256",
          "name": "tokenId",
          "type": "uint256"
        },
        {
          "indexed": true,
          "internalType": "uint256",
          "name": "parent1",
          "type": "uint256"
        },
        {
          "indexed": true,
          "internalType": "uint256",
          "name": "parent2",
          "type": "uint256"
        }
      ],
      "name": "Hatched",
      "type": "event"
    },
    {
      "anonymous": false,
      "inputs": [
        {
          "indexed": true,
          "internalType": "uint256",
          "name": "parent1",
          "type": "uint256"
        },
        {
          "indexed": true,
          "internalType": "uint256",
          "name": "parent2",
          "type": "uint256"
        },
        {
          "indexed": false,
          "internalType": "address",
          "name": "by",
          "type": "address"
        }
      ],
      "name": "Interrupted",
      "type": "event"
    },
    {
      "anonymous": false,
      "inputs": [
        {
          "indexed": false,
          "internalType": "bool",
          "name": "_toMarket",
          "type": "bool"
        }
      ],
      "name": "Minted",
      "type": "event"
    },
    {
      "anonymous": false,
      "inputs": [
        {
          "indexed": true,
          "internalType": "address",
          "name": "previousOwner",
          "type": "address"
        },
        {
          "indexed": true,
          "internalType": "address",
          "name": "newOwner",
          "type": "address"
        }
      ],
      "name": "OwnershipTransferred",
      "type": "event"
    },
    {
      "anonymous": false,
      "inputs": [
        {
          "indexed": true,
          "internalType": "address",
          "name": "from",
          "type": "address"
        },
        {
          "indexed": true,
          "internalType": "address",
          "name": "to",
          "type": "address"
        },
        {
          "indexed": true,
          "internalType": "uint256",
          "name": "tokenId",
          "type": "uint256"
        }
      ],
      "name": "Transfer",
      "type": "event"
    },
    {
      "constant": false,
      "inputs": [
        {
          "internalType": "address",
          "name": "to",
          "type": "address"
        },
        {
          "internalType": "uint256",
          "name": "tokenId",
          "type": "uint256"
        }
      ],
      "name": "approve",
      "outputs": [],
      "payable": false,
      "stateMutability": "nonpayable",
      "type": "function"
    },
    {
      "constant": true,
      "inputs": [
        {
          "internalType": "address",
          "name": "owner",
          "type": "address"
        }
      ],
      "name": "balanceOf",
      "outputs": [
        {
          "internalType": "uint256",
          "name": "",
          "type": "uint256"
        }
      ],
      "payable": false,
      "stateMutability": "view",
      "type": "function"
    },
    {
      "constant": true,
      "inputs": [
        {
          "internalType": "uint256",
          "name": "tokenId",
          "type": "uint256"
        }
      ],
      "name": "getApproved",
      "outputs": [
        {
          "internalType": "address",
          "name": "",
          "type": "address"
        }
      ],
      "payable": false,
      "stateMutability": "view",
      "type": "function"
    },
    {
      "constant": true,
      "inputs": [
        {
          "internalType": "address",
          "name": "owner",
          "type": "address"
        },
        {
          "internalType": "address",
          "name": "operator",
          "type": "address"
        }
      ],
      "name": "isApprovedForAll",
      "outputs": [
        {
          "internalType": "bool",
          "name": "",
          "type": "bool"
        }
      ],
      "payable": false,
      "stateMutability": "view",
      "type": "function"
    },
    {
      "constant": true,
      "inputs": [],
      "name": "isOwner",
      "outputs": [
        {
          "internalType": "bool",
          "name": "",
          "type": "bool"
        }
      ],
      "payable": false,
      "stateMutability": "view",
      "type": "function"
    },
    {
      "constant": true,
      "inputs": [],
      "name": "name",
      "outputs": [
        {
          "internalType": "string",
          "name": "",
          "type": "string"
        }
      ],
      "payable": false,
      "stateMutability": "view",
      "type": "function"
    },
    {
      "constant": true,
      "inputs": [],
      "name": "owner",
      "outputs": [
        {
          "internalType": "address",
          "name": "",
          "type": "address"
        }
      ],
      "payable": false,
      "stateMutability": "view",
      "type": "function"
    },
    {
      "constant": true,
      "inputs": [
        {
          "internalType": "uint256",
          "name": "tokenId",
          "type": "uint256"
        }
      ],
      "name": "ownerOf",
      "outputs": [
        {
          "internalType": "address",
          "name": "",
          "type": "address"
        }
      ],
      "payable": false,
      "stateMutability": "view",
      "type": "function"
    },
    {
      "constant": false,
      "inputs": [],
      "name": "renounceOwnership",
      "outputs": [],
      "payable": false,
      "stateMutability": "nonpayable",
      "type": "function"
    },
    {
      "constant": false,
      "inputs": [
        {
          "internalType": "address",
          "name": "from",
          "type": "address"
        },
        {
          "internalType": "address",
          "name": "to",
          "type": "address"
        },
        {
          "internalType": "uint256",
          "name": "tokenId",
          "type": "uint256"
        }
      ],
      "name": "safeTransferFrom",
      "outputs": [],
      "payable": false,
      "stateMutability": "nonpayable",
      "type": "function"
    },
    {
      "constant": false,
      "inputs": [
        {
          "internalType": "address",
          "name": "from",
          "type": "address"
        },
        {
          "internalType": "address",
          "name": "to",
          "type": "address"
        },
        {
          "internalType": "uint256",
          "name": "tokenId",
          "type": "uint256"
        },
        {
          "internalType": "bytes",
          "name": "_data",
          "type": "bytes"
        }
      ],
      "name": "safeTransferFrom",
      "outputs": [],
      "payable": false,
      "stateMutability": "nonpayable",
      "type": "function"
    },
    {
      "constant": false,
      "inputs": [
        {
          "internalType": "address",
          "name": "to",
          "type": "address"
        },
        {
          "internalType": "bool",
          "name": "approved",
          "type": "bool"
        }
      ],
      "name": "setApprovalForAll",
      "outputs": [],
      "payable": false,
      "stateMutability": "nonpayable",
      "type": "function"
    },
    {
      "constant": true,
      "inputs": [
        {
          "internalType": "bytes4",
          "name": "interfaceId",
          "type": "bytes4"
        }
      ],
      "name": "supportsInterface",
      "outputs": [
        {
          "internalType": "bool",
          "name": "",
          "type": "bool"
        }
      ],
      "payable": false,
      "stateMutability": "view",
      "type": "function"
    },
    {
      "constant": true,
      "inputs": [],
      "name": "symbol",
      "outputs": [
        {
          "internalType": "string",
          "name": "",
          "type": "string"
        }
      ],
      "payable": false,
      "stateMutability": "view",
      "type": "function"
    },
    {
      "constant": true,
      "inputs": [
        {
          "internalType": "uint256",
          "name": "index",
          "type": "uint256"
        }
      ],
      "name": "tokenByIndex",
      "outputs": [
        {
          "internalType": "uint256",
          "name": "",
          "type": "uint256"
        }
      ],
      "payable": false,
      "stateMutability": "view",
      "type": "function"
    },
    {
      "constant": true,
      "inputs": [
        {
          "internalType": "address",
          "name": "owner",
          "type": "address"
        },
        {
          "internalType": "uint256",
          "name": "index",
          "type": "uint256"
        }
      ],
      "name": "tokenOfOwnerByIndex",
      "outputs": [
        {
          "internalType": "uint256",
          "name": "",
          "type": "uint256"
        }
      ],
      "payable": false,
      "stateMutability": "view",
      "type": "function"
    },
    {
      "constant": true,
      "inputs": [
        {
          "internalType": "uint256",
          "name": "tokenId",
          "type": "uint256"
        }
      ],
      "name": "tokenURI",
      "outputs": [
        {
          "internalType": "string",
          "name": "",
          "type": "string"
        }
      ],
      "payable": false,
      "stateMutability": "view",
      "type": "function"
    },
    {
      "constant": true,
      "inputs": [],
      "name": "totalSupply",
      "outputs": [
        {
          "internalType": "uint256",
          "name": "",
          "type": "uint256"
        }
      ],
      "payable": false,
      "stateMutability": "view",
      "type": "function"
    },
    {
      "constant": false,
      "inputs": [
        {
          "internalType": "address",
          "name": "from",
          "type": "address"
        },
        {
          "internalType": "address",
          "name": "to",
          "type": "address"
        },
        {
          "internalType": "uint256",
          "name": "tokenId",
          "type": "uint256"
        }
      ],
      "name": "transferFrom",
      "outputs": [],
      "payable": false,
      "stateMutability": "nonpayable",
      "type": "function"
    },
    {
      "constant": false,
      "inputs": [
        {
          "internalType": "address",
          "name": "newOwner",
          "type": "address"
        }
      ],
      "name": "transferOwnership",
      "outputs": [],
      "payable": false,
      "stateMutability": "nonpayable",
      "type": "function"
    },
    {
      "constant": false,
      "inputs": [
        {
          "internalType": "address",
          "name": "receiver",
          "type": "address"
        },
        {
          "internalType": "string",
          "name": "tokenURI",
          "type": "string"
        }
      ],
      "name": "createCryptomon",
      "outputs": [
        {
          "internalType": "uint256",
          "name": "",
          "type": "uint256"
        }
      ],
      "payable": false,
      "stateMutability": "nonpayable",
      "type": "function"
    },
    {
      "constant": true,
      "inputs": [],
      "name": "getBreedingTokens",
      "outputs": [
        {
          "internalType": "uint256[]",
          "name": "",
          "type": "uint256[]"
        }
      ],
      "payable": false,
      "stateMutability": "view",
      "type": "function"
    },
    {
      "constant": true,
      "inputs": [
        {
          "internalType": "uint256",
          "name": "cm1",
          "type": "uint256"
        },
        {
          "internalType": "uint256",
          "name": "cm2",
          "type": "uint256"
        }
      ],
      "name": "hasHatched",
      "outputs": [
        {
          "internalType": "bool",
          "name": "",
          "type": "bool"
        }
      ],
      "payable": false,
      "stateMutability": "view",
      "type": "function"
    },
    {
      "constant": true,
      "inputs": [
        {
          "internalType": "uint256",
          "name": "tokenId",
          "type": "uint256"
        }
      ],
      "name": "isBreeding",
      "outputs": [
        {
          "internalType": "bool",
          "name": "",
          "type": "bool"
        }
      ],
      "payable": false,
      "stateMutability": "view",
      "type": "function"
    },
    {
      "constant": false,
      "inputs": [
        {
          "internalType": "uint256",
          "name": "cm1",
          "type": "uint256"
        },
        {
          "internalType": "uint256",
          "name": "cm2",
          "type": "uint256"
        }
      ],
      "name": "breed",
      "outputs": [],
      "payable": false,
      "stateMutability": "nonpayable",
      "type": "function"
    },
    {
      "constant": false,
      "inputs": [
        {
          "internalType": "uint256",
          "name": "tokenId",
          "type": "uint256"
        }
      ],
      "name": "interruptBreeding",
      "outputs": [],
      "payable": false,
      "stateMutability": "nonpayable",
      "type": "function"
    },
    {
      "constant": false,
      "inputs": [
        {
          "internalType": "uint256",
          "name": "cm1",
          "type": "uint256"
        },
        {
          "internalType": "uint256",
          "name": "cm2",
          "type": "uint256"
        }
      ],
      "name": "hatch",
      "outputs": [],
      "payable": false,
      "stateMutability": "nonpayable",
      "type": "function"
    },
    {
      "constant": false,
      "inputs": [
        {
          "internalType": "uint256",
          "name": "attacker",
          "type": "uint256"
        },
        {
          "internalType": "uint256",
          "name": "defender",
          "type": "uint256"
        }
      ],
      "name": "fight",
      "outputs": [],
      "payable": false,
      "stateMutability": "nonpayable",
      "type": "function"
    }
  ],
  "bytecode": "0x60806040523480156200001157600080fd5b50604051620046ed380380620046ed833981810160405260208110156200003757600080fd5b81019080805190602001909291905050506040518060400160405280600981526020017f43727970746f6d6f6e00000000000000000000000000000000000000000000008152506040518060400160405280600281526020017f434d0000000000000000000000000000000000000000000000000000000000008152508181620000ce6301ffc9a760e01b6200026160201b60201c565b620000e66380ac58cd60e01b6200026160201b60201c565b620000fe63780e9d6360e01b6200026160201b60201c565b81600990805190602001906200011692919062000372565b5080600a90805190602001906200012f92919062000372565b5062000148635b5e139f60e01b6200026160201b60201c565b505050506200015c6200036a60201b60201c565b600c60006101000a81548173ffffffffffffffffffffffffffffffffffffffff021916908373ffffffffffffffffffffffffffffffffffffffff160217905550600c60009054906101000a900473ffffffffffffffffffffffffffffffffffffffff1673ffffffffffffffffffffffffffffffffffffffff16600073ffffffffffffffffffffffffffffffffffffffff167f8be0079c531659141344cd1fd0a4f28419497f9722a3daafe3b4186f6b6457e060405160405180910390a380601060006101000a81548173ffffffffffffffffffffffffffffffffffffffff021916908373ffffffffffffffffffffffffffffffffffffffff1602179055505062000421565b63ffffffff60e01b817bffffffffffffffffffffffffffffffffffffffffffffffffffffffff19161415620002fe576040517f08c379a000000000000000000000000000000000000000000000000000000000815260040180806020018281038252601c8152602001807f4552433136353a20696e76616c696420696e746572666163652069640000000081525060200191505060405180910390fd5b6001600080837bffffffffffffffffffffffffffffffffffffffffffffffffffffffff19167bffffffffffffffffffffffffffffffffffffffffffffffffffffffff1916815260200190815260200160002060006101000a81548160ff02191690831515021790555050565b600033905090565b828054600181600116156101000203166002900490600052602060002090601f016020900481019282601f10620003b557805160ff1916838001178555620003e6565b82800160010185558215620003e6579182015b82811115620003e5578251825591602001919060010190620003c8565b5b509050620003f59190620003f9565b5090565b6200041e91905b808211156200041a57600081600090555060010162000400565b5090565b90565b6142bc80620004316000396000f3fe608060405234801561001057600080fd5b50600436106101c45760003560e01c8063715018a6116100f9578063bdf2016411610097578063d839ffc211610071578063d839ffc214610ae9578063d9ecad7b14610b48578063e985e9c514610b80578063f2fde38b14610bfc576101c4565b8063bdf20164146109c4578063c87b56dd14610a0a578063ca39e5ef14610ab1576101c4565b80638f32d59b116100d35780638f32d59b146107ca57806395d89b41146107ec578063a22cb4651461086f578063b88d4fde146108bf576101c4565b8063715018a61461068757806385344b6b146106915780638da5cb5b14610780576101c4565b806333c3d059116101665780634f6ccce7116101405780634f6ccce7146105515780636352211e146105935780636b2804531461060157806370a082311461062f576101c4565b806333c3d0591461045b57806341bbda611461049357806342842e0e146104e3576101c4565b8063095ea7b3116101a2578063095ea7b31461031f57806318160ddd1461036d57806323b872dd1461038b5780632f745c59146103f9576101c4565b806301ffc9a7146101c957806306fdde031461022e578063081812fc146102b1575b600080fd5b610214600480360360208110156101df57600080fd5b8101908080357bffffffffffffffffffffffffffffffffffffffffffffffffffffffff19169060200190929190505050610c40565b604051808215151515815260200191505060405180910390f35b610236610ca7565b6040518080602001828103825283818151815260200191508051906020019080838360005b8381101561027657808201518184015260208101905061025b565b50505050905090810190601f1680156102a35780820380516001836020036101000a031916815260200191505b509250505060405180910390f35b6102dd600480360360208110156102c757600080fd5b8101908080359060200190929190505050610d49565b604051808273ffffffffffffffffffffffffffffffffffffffff1673ffffffffffffffffffffffffffffffffffffffff16815260200191505060405180910390f35b61036b6004803603604081101561033557600080fd5b81019080803573ffffffffffffffffffffffffffffffffffffffff16906020019092919080359060200190929190505050610de4565b005b610375610fcb565b6040518082815260200191505060405180910390f35b6103f7600480360360608110156103a157600080fd5b81019080803573ffffffffffffffffffffffffffffffffffffffff169060200190929190803573ffffffffffffffffffffffffffffffffffffffff16906020019092919080359060200190929190505050610fd8565b005b6104456004803603604081101561040f57600080fd5b81019080803573ffffffffffffffffffffffffffffffffffffffff1690602001909291908035906020019092919050505061104e565b6040518082815260200191505060405180910390f35b6104916004803603604081101561047157600080fd5b81019080803590602001909291908035906020019092919050505061110d565b005b6104c9600480360360408110156104a957600080fd5b8101908080359060200190929190803590602001909291905050506115af565b604051808215151515815260200191505060405180910390f35b61054f600480360360608110156104f957600080fd5b81019080803573ffffffffffffffffffffffffffffffffffffffff169060200190929190803573ffffffffffffffffffffffffffffffffffffffff169060200190929190803590602001909291905050506117da565b005b61057d6004803603602081101561056757600080fd5b81019080803590602001909291905050506117fa565b6040518082815260200191505060405180910390f35b6105bf600480360360208110156105a957600080fd5b810190808035906020019092919050505061187a565b604051808273ffffffffffffffffffffffffffffffffffffffff1673ffffffffffffffffffffffffffffffffffffffff16815260200191505060405180910390f35b61062d6004803603602081101561061757600080fd5b8101908080359060200190929190505050611942565b005b6106716004803603602081101561064557600080fd5b81019080803573ffffffffffffffffffffffffffffffffffffffff169060200190929190505050611aec565b6040518082815260200191505060405180910390f35b61068f611bc1565b005b61076a600480360360408110156106a757600080fd5b81019080803573ffffffffffffffffffffffffffffffffffffffff169060200190929190803590602001906401000000008111156106e457600080fd5b8201836020820111156106f657600080fd5b8035906020019184600183028401116401000000008311171561071857600080fd5b91908080601f016020809104026020016040519081016040528093929190818152602001838380828437600081840152601f19601f820116905080830192505050505050509192919290505050611cfc565b6040518082815260200191505060405180910390f35b610788611f1f565b604051808273ffffffffffffffffffffffffffffffffffffffff1673ffffffffffffffffffffffffffffffffffffffff16815260200191505060405180910390f35b6107d2611f49565b604051808215151515815260200191505060405180910390f35b6107f4611fa8565b6040518080602001828103825283818151815260200191508051906020019080838360005b83811015610834578082015181840152602081019050610819565b50505050905090810190601f1680156108615780820380516001836020036101000a031916815260200191505b509250505060405180910390f35b6108bd6004803603604081101561088557600080fd5b81019080803573ffffffffffffffffffffffffffffffffffffffff16906020019092919080351515906020019092919050505061204a565b005b6109c2600480360360808110156108d557600080fd5b81019080803573ffffffffffffffffffffffffffffffffffffffff169060200190929190803573ffffffffffffffffffffffffffffffffffffffff169060200190929190803590602001909291908035906020019064010000000081111561093c57600080fd5b82018360208201111561094e57600080fd5b8035906020019184600183028401116401000000008311171561097057600080fd5b91908080601f016020809104026020016040519081016040528093929190818152602001838380828437600081840152601f19601f820116905080830192505050505050509192919290505050612202565b005b6109f0600480360360208110156109da57600080fd5b810190808035906020019092919050505061227a565b604051808215151515815260200191505060405180910390f35b610a3660048036036020811015610a2057600080fd5b81019080803590602001909291905050506122a7565b6040518080602001828103825283818151815260200191508051906020019080838360005b83811015610a76578082015181840152602081019050610a5b565b50505050905090810190601f168015610aa35780820380516001836020036101000a031916815260200191505b509250505060405180910390f35b610ae760048036036040811015610ac757600080fd5b8101908080359060200190929190803590602001909291905050506123ba565b005b610af161268d565b6040518080602001828103825283818151815260200191508051906020019060200280838360005b83811015610b34578082015181840152602081019050610b19565b505050509050019250505060405180910390f35b610b7e60048036036040811015610b5e57600080fd5b8101908080359060200190929190803590602001909291905050506126e5565b005b610be260048036036040811015610b9657600080fd5b81019080803573ffffffffffffffffffffffffffffffffffffffff169060200190929190803573ffffffffffffffffffffffffffffffffffffffff169060200190929190505050612a82565b604051808215151515815260200191505060405180910390f35b610c3e60048036036020811015610c1257600080fd5b81019080803573ffffffffffffffffffffffffffffffffffffffff169060200190929190505050612b16565b005b6000806000837bffffffffffffffffffffffffffffffffffffffffffffffffffffffff19167bffffffffffffffffffffffffffffffffffffffffffffffffffffffff1916815260200190815260200160002060009054906101000a900460ff169050919050565b606060098054600181600116156101000203166002900480601f016020809104026020016040519081016040528092919081815260200182805460018160011615610100020316600290048015610d3f5780601f10610d1457610100808354040283529160200191610d3f565b820191906000526020600020905b815481529060010190602001808311610d2257829003601f168201915b5050505050905090565b6000610d5482612b9c565b610da9576040517f08c379a000000000000000000000000000000000000000000000000000000000815260040180806020018281038252602c8152602001806140cf602c913960400191505060405180910390fd5b6002600083815260200190815260200160002060009054906101000a900473ffffffffffffffffffffffffffffffffffffffff169050919050565b6000610def8261187a565b90508073ffffffffffffffffffffffffffffffffffffffff168373ffffffffffffffffffffffffffffffffffffffff161415610e76576040517f08c379a00000000000000000000000000000000000000000000000000000000081526004018080602001828103825260218152602001806141c16021913960400191505060405180910390fd5b8073ffffffffffffffffffffffffffffffffffffffff16610e95612c0e565b73ffffffffffffffffffffffffffffffffffffffff161480610ec45750610ec381610ebe612c0e565b612a82565b5b610f19576040517f08c379a0000000000000000000000000000000000000000000000000000000008152600401808060200182810382526038815260200180613ffb6038913960400191505060405180910390fd5b826002600084815260200190815260200160002060006101000a81548173ffffffffffffffffffffffffffffffffffffffff021916908373ffffffffffffffffffffffffffffffffffffffff160217905550818373ffffffffffffffffffffffffffffffffffffffff168273ffffffffffffffffffffffffffffffffffffffff167f8c5be1e5ebec7d5bd14f71427d1e84f3dd0314c0f7b2291e5b200ac8c7c3b92560405160405180910390a4505050565b6000600780549050905090565b610fe9610fe3612c0e565b82612c16565b61103e576040517f08c379a00000000000000000000000000000000000000000000000000000000081526004018080602001828103825260318152602001806141e26031913960400191505060405180910390fd5b611049838383612d0a565b505050565b600061105983611aec565b82106110b0576040517f08c379a000000000000000000000000000000000000000000000000000000000815260040180806020018281038252602b815260200180613f07602b913960400191505060405180910390fd5b600560008473ffffffffffffffffffffffffffffffffffffffff1673ffffffffffffffffffffffffffffffffffffffff16815260200190815260200160002082815481106110fa57fe5b9060005260206000200154905092915050565b3373ffffffffffffffffffffffffffffffffffffffff1661112d8361187a565b73ffffffffffffffffffffffffffffffffffffffff1614611199576040517f08c379a0000000000000000000000000000000000000000000000000000000008152600401808060200182810382526021815260200180613f8a6021913960400191505060405180910390fd5b3373ffffffffffffffffffffffffffffffffffffffff166111b98261187a565b73ffffffffffffffffffffffffffffffffffffffff1614611225576040517f08c379a0000000000000000000000000000000000000000000000000000000008152600401808060200182810382526021815260200180613f8a6021913960400191505060405180910390fd5b61122f82826115af565b611284576040517f08c379a00000000000000000000000000000000000000000000000000000000081526004018080602001828103825260218152602001806141a06021913960400191505060405180910390fd5b60606000600143034060001c905060006002828161129e57fe5b0614156113f6573073ffffffffffffffffffffffffffffffffffffffff1663c87b56dd856040518263ffffffff1660e01b81526004018082815260200191505060006040518083038186803b1580156112f657600080fd5b505afa15801561130a573d6000803e3d6000fd5b505050506040513d6000823e3d601f19601f82011682018060405250602081101561133457600080fd5b810190808051604051939291908464010000000082111561135457600080fd5b8382019150602082018581111561136a57600080fd5b825186600182028301116401000000008211171561138757600080fd5b8083526020830192505050908051906020019080838360005b838110156113bb5780820151818401526020810190506113a0565b50505050905090810190601f1680156113e85780820380516001836020036101000a031916815260200191505b506040525050509150611543565b3073ffffffffffffffffffffffffffffffffffffffff1663c87b56dd846040518263ffffffff1660e01b81526004018082815260200191505060006040518083038186803b15801561144757600080fd5b505afa15801561145b573d6000803e3d6000fd5b505050506040513d6000823e3d601f19601f82011682018060405250602081101561148557600080fd5b81019080805160405193929190846401000000008211156114a557600080fd5b838201915060208201858111156114bb57600080fd5b82518660018202830111640100000000821117156114d857600080fd5b8083526020830192505050908051906020019080838360005b8381101561150c5780820151818401526020810190506114f1565b50505050905090810190601f1680156115395780820380516001836020036101000a031916815260200191505b5060405250505091505b61154d600f612d2e565b6000611559600f612d44565b90506115653382612d52565b61156f8184612d70565b6115798585612dfa565b8385827ffa07fb5c8c84ef0c2230616dca0812e7d452ce02e352152cbfc7e1c803b748c060405160405180910390a45050505050565b6000600e600084815260200190815260200160002060030160009054906101000a900460ff16611647576040517f08c379a000000000000000000000000000000000000000000000000000000000815260040180806020018281038252601c8152602001807f546869732063727970746f6d6f6e20646964206e6f742062726565640000000081525060200191505060405180910390fd5b600e600083815260200190815260200160002060030160009054906101000a900460ff166116dd576040517f08c379a000000000000000000000000000000000000000000000000000000000815260040180806020018281038252601c8152602001807f546869732063727970746f6d6f6e20646964206e6f742062726565640000000081525060200191505060405180910390fd5b81600e6000858152602001908152602001600020600001541461174b576040517f08c379a00000000000000000000000000000000000000000000000000000000081526004018080602001828103825260218152602001806141506021913960400191505060405180910390fd5b82600e600084815260200190815260200160002060000154146117b9576040517f08c379a00000000000000000000000000000000000000000000000000000000081526004018080602001828103825260218152602001806141506021913960400191505060405180910390fd5b600e6000848152602001908152602001600020600201544211905092915050565b6117f583838360405180602001604052806000815250612202565b505050565b6000611804610fcb565b821061185b576040517f08c379a000000000000000000000000000000000000000000000000000000000815260040180806020018281038252602c815260200180614213602c913960400191505060405180910390fd5b6007828154811061186857fe5b90600052602060002001549050919050565b6000806001600084815260200190815260200160002060009054906101000a900473ffffffffffffffffffffffffffffffffffffffff169050600073ffffffffffffffffffffffffffffffffffffffff168173ffffffffffffffffffffffffffffffffffffffff161415611939576040517f08c379a00000000000000000000000000000000000000000000000000000000081526004018080602001828103825260298152602001806140856029913960400191505060405180910390fd5b80915050919050565b600e600082815260200190815260200160002060030160009054906101000a900460ff166119d8576040517f08c379a000000000000000000000000000000000000000000000000000000000815260040180806020018281038252601a8152602001807f5468697320746f6b656e206973206e6f74206272656564696e6700000000000081525060200191505060405180910390fd5b6119f881600e6000848152602001908152602001600020600001546115af565b15611a4e576040517f08c379a000000000000000000000000000000000000000000000000000000000815260040180806020018281038252602881526020018061423f6028913960400191505060405180910390fd5b600e600082815260200190815260200160002060000154817fc4804913f67c7aa99b9fa6341f5defec4db503702653ba547bd50cc5849956d533604051808273ffffffffffffffffffffffffffffffffffffffff1673ffffffffffffffffffffffffffffffffffffffff16815260200191505060405180910390a3611ae981600e600084815260200190815260200160002060000154612dfa565b50565b60008073ffffffffffffffffffffffffffffffffffffffff168273ffffffffffffffffffffffffffffffffffffffff161415611b73576040517f08c379a000000000000000000000000000000000000000000000000000000000815260040180806020018281038252602a81526020018061405b602a913960400191505060405180910390fd5b611bba600360008473ffffffffffffffffffffffffffffffffffffffff1673ffffffffffffffffffffffffffffffffffffffff168152602001908152602001600020612d44565b9050919050565b611bc9611f49565b611c3b576040517f08c379a00000000000000000000000000000000000000000000000000000000081526004018080602001828103825260208152602001807f4f776e61626c653a2063616c6c6572206973206e6f7420746865206f776e657281525060200191505060405180910390fd5b600073ffffffffffffffffffffffffffffffffffffffff16600c60009054906101000a900473ffffffffffffffffffffffffffffffffffffffff1673ffffffffffffffffffffffffffffffffffffffff167f8be0079c531659141344cd1fd0a4f28419497f9722a3daafe3b4186f6b6457e060405160405180910390a36000600c60006101000a81548173ffffffffffffffffffffffffffffffffffffffff021916908373ffffffffffffffffffffffffffffffffffffffff160217905550565b6000611d06611f49565b611d78576040517f08c379a00000000000000000000000000000000000000000000000000000000081526004018080602001828103825260208152602001807f4f776e61626c653a2063616c6c6572206973206e6f7420746865206f776e657281525060200191505060405180910390fd5b611d82600f612d2e565b6000611d8e600f612d44565b9050611d9a8482612d52565b611da48184612d70565b601060009054906101000a900473ffffffffffffffffffffffffffffffffffffffff1673ffffffffffffffffffffffffffffffffffffffff168473ffffffffffffffffffffffffffffffffffffffff161415611ed8577f63e302bef81d56a3136069f8308277a1044a9387882128fbce3189ee800a21c46001604051808215151515815260200191505060405180910390a1601060009054906101000a900473ffffffffffffffffffffffffffffffffffffffff1673ffffffffffffffffffffffffffffffffffffffff166375c1631d8267016345785d8a00006040518363ffffffff1660e01b81526004018083815260200182815260200192505050600060405180830381600087803b158015611ebb57600080fd5b505af1158015611ecf573d6000803e3d6000fd5b50505050611f15565b7f63e302bef81d56a3136069f8308277a1044a9387882128fbce3189ee800a21c46000604051808215151515815260200191505060405180910390a15b8091505092915050565b6000600c60009054906101000a900473ffffffffffffffffffffffffffffffffffffffff16905090565b6000600c60009054906101000a900473ffffffffffffffffffffffffffffffffffffffff1673ffffffffffffffffffffffffffffffffffffffff16611f8c612c0e565b73ffffffffffffffffffffffffffffffffffffffff1614905090565b6060600a8054600181600116156101000203166002900480601f0160208091040260200160405190810160405280929190818152602001828054600181600116156101000203166002900480156120405780601f1061201557610100808354040283529160200191612040565b820191906000526020600020905b81548152906001019060200180831161202357829003601f168201915b5050505050905090565b612052612c0e565b73ffffffffffffffffffffffffffffffffffffffff168273ffffffffffffffffffffffffffffffffffffffff1614156120f3576040517f08c379a00000000000000000000000000000000000000000000000000000000081526004018080602001828103825260198152602001807f4552433732313a20617070726f766520746f2063616c6c65720000000000000081525060200191505060405180910390fd5b8060046000612100612c0e565b73ffffffffffffffffffffffffffffffffffffffff1673ffffffffffffffffffffffffffffffffffffffff16815260200190815260200160002060008473ffffffffffffffffffffffffffffffffffffffff1673ffffffffffffffffffffffffffffffffffffffff16815260200190815260200160002060006101000a81548160ff0219169083151502179055508173ffffffffffffffffffffffffffffffffffffffff166121ad612c0e565b73ffffffffffffffffffffffffffffffffffffffff167f17307eab39ab6107e8899845ad3d59bd9653f200f220920489ca2b5937696c3183604051808215151515815260200191505060405180910390a35050565b61221361220d612c0e565b83612c16565b612268576040517f08c379a00000000000000000000000000000000000000000000000000000000081526004018080602001828103825260318152602001806141e26031913960400191505060405180910390fd5b61227484848484612f88565b50505050565b6000600e600083815260200190815260200160002060030160009054906101000a900460ff169050919050565b60606122b282612b9c565b612307576040517f08c379a000000000000000000000000000000000000000000000000000000000815260040180806020018281038252602f815260200180614171602f913960400191505060405180910390fd5b600b60008381526020019081526020016000208054600181600116156101000203166002900480601f0160208091040260200160405190810160405280929190818152602001828054600181600116156101000203166002900480156123ae5780601f10612383576101008083540402835291602001916123ae565b820191906000526020600020905b81548152906001019060200180831161239157829003601f168201915b50505050509050919050565b3373ffffffffffffffffffffffffffffffffffffffff166123da8361187a565b73ffffffffffffffffffffffffffffffffffffffff1614612446576040517f08c379a0000000000000000000000000000000000000000000000000000000008152600401808060200182810382526028815260200180613edf6028913960400191505060405180910390fd5b3373ffffffffffffffffffffffffffffffffffffffff166124668261187a565b73ffffffffffffffffffffffffffffffffffffffff1614156124d3576040517f08c379a00000000000000000000000000000000000000000000000000000000081526004018080602001828103825260288152602001806140336028913960400191505060405180910390fd5b6000600143034060001c90506000600282816124eb57fe5b0614156125cb576124fb8261227a565b1561250a5761250982611942565b5b7f4789bdf25aeaa26a308a190533f86d5548f37b298f20e7af9299c3e946846c52336125358461187a565b85856001604051808673ffffffffffffffffffffffffffffffffffffffff1673ffffffffffffffffffffffffffffffffffffffff1681526020018573ffffffffffffffffffffffffffffffffffffffff1673ffffffffffffffffffffffffffffffffffffffff168152602001848152602001838152602001821515151581526020019550505050505060405180910390a1612688565b7f4789bdf25aeaa26a308a190533f86d5548f37b298f20e7af9299c3e946846c52336125f68461187a565b85856000604051808673ffffffffffffffffffffffffffffffffffffffff1673ffffffffffffffffffffffffffffffffffffffff1681526020018573ffffffffffffffffffffffffffffffffffffffff1673ffffffffffffffffffffffffffffffffffffffff168152602001848152602001838152602001821515151581526020019550505050505060405180910390a15b505050565b6060600d8054806020026020016040519081016040528092919081815260200182805480156126db57602002820191906000526020600020905b8154815260200190600101908083116126c7575b5050505050905090565b3373ffffffffffffffffffffffffffffffffffffffff166127058361187a565b73ffffffffffffffffffffffffffffffffffffffff1614612771576040517f08c379a00000000000000000000000000000000000000000000000000000000081526004018080602001828103825260218152602001806140ae6021913960400191505060405180910390fd5b3373ffffffffffffffffffffffffffffffffffffffff166127918261187a565b73ffffffffffffffffffffffffffffffffffffffff16146127fd576040517f08c379a00000000000000000000000000000000000000000000000000000000081526004018080602001828103825260218152602001806140ae6021913960400191505060405180910390fd5b600e600083815260200190815260200160002060030160009054906101000a900460ff1615612877576040517f08c379a00000000000000000000000000000000000000000000000000000000081526004018080602001828103825260218152602001806142676021913960400191505060405180910390fd5b600e600082815260200190815260200160002060030160009054906101000a900460ff16156128f1576040517f08c379a00000000000000000000000000000000000000000000000000000000081526004018080602001828103825260218152602001806142676021913960400191505060405180910390fd5b600d829080600181540180825580915050906001820390600052602060002001600090919290919091505550600d8190806001815401808255809150509060018203906000526020600020016000909192909190915055506000601e603c4201019050604051806080016040528083815260200142815260200182815260200160011515815250600e600085815260200190815260200160002060008201518160000155602082015181600101556040820151816002015560608201518160030160006101000a81548160ff021916908315150217905550905050604051806080016040528084815260200142815260200182815260200160011515815250600e600084815260200190815260200160002060008201518160000155602082015181600101556040820151816002015560608201518160030160006101000a81548160ff02191690831515021790555090505081837f2f6f206b0c2ab0fdb98e23132aec812e2f8df72ed7cb0b6183ba626074166f1b836040518082815260200191505060405180910390a3505050565b6000600460008473ffffffffffffffffffffffffffffffffffffffff1673ffffffffffffffffffffffffffffffffffffffff16815260200190815260200160002060008373ffffffffffffffffffffffffffffffffffffffff1673ffffffffffffffffffffffffffffffffffffffff16815260200190815260200160002060009054906101000a900460ff16905092915050565b612b1e611f49565b612b90576040517f08c379a00000000000000000000000000000000000000000000000000000000081526004018080602001828103825260208152602001807f4f776e61626c653a2063616c6c6572206973206e6f7420746865206f776e657281525060200191505060405180910390fd5b612b9981612ffa565b50565b6000806001600084815260200190815260200160002060009054906101000a900473ffffffffffffffffffffffffffffffffffffffff169050600073ffffffffffffffffffffffffffffffffffffffff168173ffffffffffffffffffffffffffffffffffffffff161415915050919050565b600033905090565b6000612c2182612b9c565b612c76576040517f08c379a000000000000000000000000000000000000000000000000000000000815260040180806020018281038252602c815260200180613fcf602c913960400191505060405180910390fd5b6000612c818361187a565b90508073ffffffffffffffffffffffffffffffffffffffff168473ffffffffffffffffffffffffffffffffffffffff161480612cf057508373ffffffffffffffffffffffffffffffffffffffff16612cd884610d49565b73ffffffffffffffffffffffffffffffffffffffff16145b80612d015750612d008185612a82565b5b91505092915050565b612d15838383613140565b612d1f838261339b565b612d298282613539565b505050565b6001816000016000828254019250508190555050565b600081600001549050919050565b612d6c828260405180602001604052806000815250613600565b5050565b612d7982612b9c565b612dce576040517f08c379a000000000000000000000000000000000000000000000000000000000815260040180806020018281038252602c8152602001806140fb602c913960400191505060405180910390fd5b80600b60008481526020019081526020016000209080519060200190612df5929190613e0d565b505050565b604051806080016040528060008152602001600081526020016000815260200160001515815250600e600084815260200190815260200160002060008201518160000155602082015181600101556040820151816002015560608201518160030160006101000a81548160ff021916908315150217905550905050604051806080016040528060008152602001600081526020016000815260200160001515815250600e600083815260200190815260200160002060008201518160000155602082015181600101556040820151816002015560608201518160030160006101000a81548160ff02191690831515021790555090505060008090505b600d80549050811015612f395782600d8281548110612f1157fe5b90600052602060002001541415612f2c57612f2b81613671565b5b8080600101915050612ef6565b5060008090505b600d80549050811015612f835781600d8281548110612f5b57fe5b90600052602060002001541415612f7657612f7581613671565b5b8080600101915050612f40565b505050565b612f93848484612d0a565b612f9f84848484613762565b612ff4576040517f08c379a0000000000000000000000000000000000000000000000000000000008152600401808060200182810382526032815260200180613f326032913960400191505060405180910390fd5b50505050565b600073ffffffffffffffffffffffffffffffffffffffff168173ffffffffffffffffffffffffffffffffffffffff161415613080576040517f08c379a0000000000000000000000000000000000000000000000000000000008152600401808060200182810382526026815260200180613f646026913960400191505060405180910390fd5b8073ffffffffffffffffffffffffffffffffffffffff16600c60009054906101000a900473ffffffffffffffffffffffffffffffffffffffff1673ffffffffffffffffffffffffffffffffffffffff167f8be0079c531659141344cd1fd0a4f28419497f9722a3daafe3b4186f6b6457e060405160405180910390a380600c60006101000a81548173ffffffffffffffffffffffffffffffffffffffff021916908373ffffffffffffffffffffffffffffffffffffffff16021790555050565b8273ffffffffffffffffffffffffffffffffffffffff166131608261187a565b73ffffffffffffffffffffffffffffffffffffffff16146131cc576040517f08c379a00000000000000000000000000000000000000000000000000000000081526004018080602001828103825260298152602001806141276029913960400191505060405180910390fd5b600073ffffffffffffffffffffffffffffffffffffffff168273ffffffffffffffffffffffffffffffffffffffff161415613252576040517f08c379a0000000000000000000000000000000000000000000000000000000008152600401808060200182810382526024815260200180613fab6024913960400191505060405180910390fd5b61325b81613952565b6132a2600360008573ffffffffffffffffffffffffffffffffffffffff1673ffffffffffffffffffffffffffffffffffffffff168152602001908152602001600020613a10565b6132e9600360008473ffffffffffffffffffffffffffffffffffffffff1673ffffffffffffffffffffffffffffffffffffffff168152602001908152602001600020612d2e565b816001600083815260200190815260200160002060006101000a81548173ffffffffffffffffffffffffffffffffffffffff021916908373ffffffffffffffffffffffffffffffffffffffff160217905550808273ffffffffffffffffffffffffffffffffffffffff168473ffffffffffffffffffffffffffffffffffffffff167fddf252ad1be2c89b69c2b068fc378daa952ba7f163c4a11628f55a4df523b3ef60405160405180910390a4505050565b60006133f36001600560008673ffffffffffffffffffffffffffffffffffffffff1673ffffffffffffffffffffffffffffffffffffffff16815260200190815260200160002080549050613a3390919063ffffffff16565b90506000600660008481526020019081526020016000205490508181146134e0576000600560008673ffffffffffffffffffffffffffffffffffffffff1673ffffffffffffffffffffffffffffffffffffffff168152602001908152602001600020838154811061346057fe5b9060005260206000200154905080600560008773ffffffffffffffffffffffffffffffffffffffff1673ffffffffffffffffffffffffffffffffffffffff16815260200190815260200160002083815481106134b857fe5b9060005260206000200181905550816006600083815260200190815260200160002081905550505b600560008573ffffffffffffffffffffffffffffffffffffffff1673ffffffffffffffffffffffffffffffffffffffff1681526020019081526020016000208054809190600190036135329190613e8d565b5050505050565b600560008373ffffffffffffffffffffffffffffffffffffffff1673ffffffffffffffffffffffffffffffffffffffff168152602001908152602001600020805490506006600083815260200190815260200160002081905550600560008373ffffffffffffffffffffffffffffffffffffffff1673ffffffffffffffffffffffffffffffffffffffff1681526020019081526020016000208190806001815401808255809150509060018203906000526020600020016000909192909190915055505050565b61360a8383613a7d565b6136176000848484613762565b61366c576040517f08c379a0000000000000000000000000000000000000000000000000000000008152600401808060200182810382526032815260200180613f326032913960400191505060405180910390fd5b505050565b600d8054905081106136eb576040517f08c379a000000000000000000000000000000000000000000000000000000000815260040180806020018281038252601b8152602001807f496d70726f70657220696e64657820666f722064656c6574696e67000000000081525060200191505060405180910390fd5b600d6001600d80549050038154811061370057fe5b9060005260206000200154600d828154811061371857fe5b9060005260206000200181905550600d6001600d80549050038154811061373b57fe5b9060005260206000200160009055600d80548091906001900361375e9190613e8d565b5050565b60006137838473ffffffffffffffffffffffffffffffffffffffff16613a9e565b613790576001905061394a565b60008473ffffffffffffffffffffffffffffffffffffffff1663150b7a026137b6612c0e565b8887876040518563ffffffff1660e01b8152600401808573ffffffffffffffffffffffffffffffffffffffff1673ffffffffffffffffffffffffffffffffffffffff1681526020018473ffffffffffffffffffffffffffffffffffffffff1673ffffffffffffffffffffffffffffffffffffffff16815260200183815260200180602001828103825283818151815260200191508051906020019080838360005b83811015613872578082015181840152602081019050613857565b50505050905090810190601f16801561389f5780820380516001836020036101000a031916815260200191505b5095505050505050602060405180830381600087803b1580156138c157600080fd5b505af11580156138d5573d6000803e3d6000fd5b505050506040513d60208110156138eb57600080fd5b8101908080519060200190929190505050905063150b7a0260e01b7bffffffffffffffffffffffffffffffffffffffffffffffffffffffff1916817bffffffffffffffffffffffffffffffffffffffffffffffffffffffff1916149150505b949350505050565b600073ffffffffffffffffffffffffffffffffffffffff166002600083815260200190815260200160002060009054906101000a900473ffffffffffffffffffffffffffffffffffffffff1673ffffffffffffffffffffffffffffffffffffffff1614613a0d5760006002600083815260200190815260200160002060006101000a81548173ffffffffffffffffffffffffffffffffffffffff021916908373ffffffffffffffffffffffffffffffffffffffff1602179055505b50565b613a2860018260000154613a3390919063ffffffff16565b816000018190555050565b6000613a7583836040518060400160405280601e81526020017f536166654d6174683a207375627472616374696f6e206f766572666c6f770000815250613ae9565b905092915050565b613a878282613ba9565b613a918282613539565b613a9a81613dc1565b5050565b60008060007fc5d2460186f7233c927e7db2dcc703c0e500b653ca82273b7bfad8045d85a47060001b9050833f91506000801b8214158015613ae05750808214155b92505050919050565b6000838311158290613b96576040517f08c379a00000000000000000000000000000000000000000000000000000000081526004018080602001828103825283818151815260200191508051906020019080838360005b83811015613b5b578082015181840152602081019050613b40565b50505050905090810190601f168015613b885780820380516001836020036101000a031916815260200191505b509250505060405180910390fd5b5060008385039050809150509392505050565b600073ffffffffffffffffffffffffffffffffffffffff168273ffffffffffffffffffffffffffffffffffffffff161415613c4c576040517f08c379a00000000000000000000000000000000000000000000000000000000081526004018080602001828103825260208152602001807f4552433732313a206d696e7420746f20746865207a65726f206164647265737381525060200191505060405180910390fd5b613c5581612b9c565b15613cc8576040517f08c379a000000000000000000000000000000000000000000000000000000000815260040180806020018281038252601c8152602001807f4552433732313a20746f6b656e20616c7265616479206d696e7465640000000081525060200191505060405180910390fd5b816001600083815260200190815260200160002060006101000a81548173ffffffffffffffffffffffffffffffffffffffff021916908373ffffffffffffffffffffffffffffffffffffffff160217905550613d61600360008473ffffffffffffffffffffffffffffffffffffffff1673ffffffffffffffffffffffffffffffffffffffff168152602001908152602001600020612d2e565b808273ffffffffffffffffffffffffffffffffffffffff16600073ffffffffffffffffffffffffffffffffffffffff167fddf252ad1be2c89b69c2b068fc378daa952ba7f163c4a11628f55a4df523b3ef60405160405180910390a45050565b6007805490506008600083815260200190815260200160002081905550600781908060018154018082558091505090600182039060005260206000200160009091929091909150555050565b828054600181600116156101000203166002900490600052602060002090601f016020900481019282601f10613e4e57805160ff1916838001178555613e7c565b82800160010185558215613e7c579182015b82811115613e7b578251825591602001919060010190613e60565b5b509050613e899190613eb9565b5090565b815481835581811115613eb457818360005260206000209182019101613eb39190613eb9565b5b505050565b613edb91905b80821115613ed7576000816000905550600101613ebf565b5090565b9056fe43616e206f6e6c792061747461636b207769746820612063727970746f6d6f6e20796f75206f776e455243373231456e756d657261626c653a206f776e657220696e646578206f7574206f6620626f756e64734552433732313a207472616e7366657220746f206e6f6e20455243373231526563656976657220696d706c656d656e7465724f776e61626c653a206e6577206f776e657220697320746865207a65726f206164647265737343616e206f6e6c792068617463682063727970746f6d6f6e7320796f75206f776e4552433732313a207472616e7366657220746f20746865207a65726f20616464726573734552433732313a206f70657261746f7220717565727920666f72206e6f6e6578697374656e7420746f6b656e4552433732313a20617070726f76652063616c6c6572206973206e6f74206f776e6572206e6f7220617070726f76656420666f7220616c6c43616e206f6e6c792061747461636b20736f6d656f6e65277320656c73652063727970746f6d6f6e4552433732313a2062616c616e636520717565727920666f7220746865207a65726f20616464726573734552433732313a206f776e657220717565727920666f72206e6f6e6578697374656e7420746f6b656e43616e206f6e6c792062726565642063727970746f6d6f6e7320796f75206f776e4552433732313a20617070726f76656420717565727920666f72206e6f6e6578697374656e7420746f6b656e4552433732314d657461646174613a2055524920736574206f66206e6f6e6578697374656e7420746f6b656e4552433732313a207472616e73666572206f6620746f6b656e2074686174206973206e6f74206f776e5468657365203220617265206e6f74206272656564696e6720746f6765746865724552433732314d657461646174613a2055524920717565727920666f72206e6f6e6578697374656e7420746f6b656e546869732063727970746f6d6f6e206973206e6f742068617463686564207965744552433732313a20617070726f76616c20746f2063757272656e74206f776e65724552433732313a207472616e736665722063616c6c6572206973206e6f74206f776e6572206e6f7220617070726f766564455243373231456e756d657261626c653a20676c6f62616c20696e646578206f7574206f6620626f756e64735468697320746f6b656e2068617320616c72656164792066696e6973686564206272656564696e674f6e652063727970746f6d6f6e20697320616c7265616479206272656564696e67a265627a7a72315820580030815caadcfb5387d1c3d7098cf33c325670600aa68f9f5e7b883549531b64736f6c634300050c0032",
  "source": "pragma solidity ^0.5.1;\n\nimport \"openzeppelin-solidity/contracts/token/ERC721/ERC721Full.sol\";\nimport \"openzeppelin-solidity/contracts/drafts/Counters.sol\";\nimport \"openzeppelin-solidity/contracts/ownership/Ownable.sol\";\nimport \"./Market.sol\";\n\ncontract Cryptomon is ERC721Full, Ownable {\n    struct BreedData {\n        uint256 with;\n        uint256 startTime;\n        uint256 endTime;\n        bool isSet;\n    }\n\n    event Breeding(\n        uint256 indexed parent1,\n        uint256 indexed parent2,\n        uint256 endTime\n    );\n    event Interrupted(\n        uint256 indexed parent1,\n        uint256 indexed parent2,\n        address by\n    );\n    event Hatched(\n        uint256 indexed tokenId,\n        uint256 indexed parent1,\n        uint256 indexed parent2\n    );\n    event Fighted(\n        address attacker,\n        address defender,\n        uint256 attacker_token,\n        uint256 defender_token,\n        bool win\n    );\n\n    uint256[] private breedingTokens;\n    mapping(uint256 => BreedData) private breeders;\n\n    using Counters for Counters.Counter;\n    Counters.Counter private _tokenIds;\n\n    event Minted(bool _toMarket);\n\n    Market private market;\n\n    constructor(address _market)\n        public\n        ERC721Full(\"Cryptomon\", \"CM\")\n        Ownable()\n    {\n        market = Market(_market);\n    }\n\n    function createCryptomon(address receiver, string memory tokenURI)\n        public\n        onlyOwner()\n        returns (uint256)\n    {\n        _tokenIds.increment();\n\n        uint256 newItemId = _tokenIds.current();\n        _safeMint(receiver, newItemId);\n        _setTokenURI(newItemId, tokenURI);\n\n        if (receiver == address(market)) {\n            emit Minted(true);\n            market.listToken(newItemId, 0.1 ether);\n        } else {\n            emit Minted(false);\n        }\n\n        return newItemId;\n    }\n\n    function getBreedingTokens() public view returns (uint256[] memory) {\n        return breedingTokens;\n    }\n\n    function hasHatched(uint256 cm1, uint256 cm2) public view returns (bool) {\n        require(breeders[cm1].isSet, \"This cryptomon did not breed\");\n        require(breeders[cm2].isSet, \"This cryptomon did not breed\");\n        require(breeders[cm1].with == cm2, \"These 2 are not breeding together\");\n        require(breeders[cm2].with == cm1, \"These 2 are not breeding together\");\n        return now > breeders[cm1].endTime;\n    }\n\n    function isBreeding(uint256 tokenId) public view returns (bool) {\n        return breeders[tokenId].isSet;\n    }\n\n    function breed(uint256 cm1, uint256 cm2) public {\n        require(\n            ownerOf(cm1) == msg.sender,\n            \"Can only breed cryptomons you own\"\n        );\n        require(\n            ownerOf(cm2) == msg.sender,\n            \"Can only breed cryptomons you own\"\n        );\n\n        require(!breeders[cm1].isSet, \"One cryptomon is already breeding\");\n        require(!breeders[cm2].isSet, \"One cryptomon is already breeding\");\n\n        breedingTokens.push(cm1);\n        breedingTokens.push(cm2);\n        uint256 end = now + 1 minutes + 30;\n        breeders[cm1] = BreedData(cm2, now, end, true);\n        breeders[cm2] = BreedData(cm1, now, end, true);\n\n        emit Breeding(cm1, cm2, end);\n    }\n\n    function interruptBreeding(uint256 tokenId) public {\n        require(breeders[tokenId].isSet, \"This token is not breeding\");\n        require(\n            !hasHatched(tokenId, breeders[tokenId].with),\n            \"This token has already finished breeding\"\n        );\n\n        emit Interrupted(tokenId, breeders[tokenId].with, msg.sender);\n\n        _clearBreeding(tokenId, breeders[tokenId].with);\n\n    }\n\n    function _deleteBreedingToken(uint256 index) internal {\n        require(index < breedingTokens.length, \"Improper index for deleting\");\n        breedingTokens[index] = breedingTokens[breedingTokens.length - 1];\n        delete breedingTokens[breedingTokens.length - 1];\n        breedingTokens.length--;\n    }\n\n    function _clearBreeding(uint256 cm1, uint256 cm2) internal {\n        breeders[cm1] = BreedData(0, 0, 0, false);\n        breeders[cm2] = BreedData(0, 0, 0, false);\n        for (uint256 i = 0; i < breedingTokens.length; i++) {\n            if (breedingTokens[i] == cm1) {\n                _deleteBreedingToken(i);\n            }\n        }\n        for (uint256 i = 0; i < breedingTokens.length; i++) {\n            if (breedingTokens[i] == cm2) {\n                _deleteBreedingToken(i);\n            }\n        }\n    }\n\n    function hatch(uint256 cm1, uint256 cm2) public {\n        require(\n            ownerOf(cm1) == msg.sender,\n            \"Can only hatch cryptomons you own\"\n        );\n        require(\n            ownerOf(cm2) == msg.sender,\n            \"Can only hatch cryptomons you own\"\n        );\n        // all important verifications are done in hasHatched to avoid redoing it\n        require(hasHatched(cm1, cm2), \"This cryptomon is not hatched yet\");\n\n        string memory newTokenUri;\n        uint256 random = uint256(blockhash(block.number - 1));\n        if (random % 2 == 0) {\n            newTokenUri = this.tokenURI(cm1);\n        } else {\n            newTokenUri = this.tokenURI(cm2);\n        }\n        _tokenIds.increment();\n\n        uint256 newItemId = _tokenIds.current();\n        _safeMint(msg.sender, newItemId);\n        _setTokenURI(newItemId, newTokenUri);\n\n        _clearBreeding(cm1, cm2);\n\n        emit Hatched(newItemId, cm1, cm2);\n\n    }\n\n    function fight(uint256 attacker, uint256 defender) public {\n        require(\n            ownerOf(attacker) == msg.sender,\n            \"Can only attack with a cryptomon you own\"\n        );\n        require(\n            ownerOf(defender) != msg.sender,\n            \"Can only attack someone's else cryptomon\"\n        );\n\n        uint256 random = uint256(blockhash(block.number - 1));\n        if (random % 2 == 0) {\n            // won\n            if (isBreeding(defender)) {\n                interruptBreeding(defender);\n            }\n            emit Fighted(\n                msg.sender,\n                ownerOf(defender),\n                attacker,\n                defender,\n                true\n            );\n        } else {\n            // lost\n            emit Fighted(\n                msg.sender,\n                ownerOf(defender),\n                attacker,\n                defender,\n                false\n            );\n        }\n\n    }\n}\n",
  "sourcePath": "/Users/arthurdepasse/Documents/Imperial Courses/PDL/cryptomons/contracts/Cryptomon.sol",
  "compiler": {
    "name": "solc",
    "version": "0.5.12+commit.7709ece9.Emscripten.clang"
  },
  "schemaVersion": "3.0.19",
  "updatedAt": "2020-01-31T11:41:49.263Z",
  "networkType": "ethereum",
  "devdoc": {
    "methods": {
      "approve(address,uint256)": {
        "details": "Approves another address to transfer the given token ID The zero address indicates there is no approved address. There can only be one approved address per token at a given time. Can only be called by the token owner or an approved operator.",
        "params": {
          "to": "address to be approved for the given token ID",
          "tokenId": "uint256 ID of the token to be approved"
        }
      },
      "balanceOf(address)": {
        "details": "Gets the balance of the specified address.",
        "params": {
          "owner": "address to query the balance of"
        },
        "return": "uint256 representing the amount owned by the passed address"
      },
      "getApproved(uint256)": {
        "details": "Gets the approved address for a token ID, or zero if no address set Reverts if the token ID does not exist.",
        "params": {
          "tokenId": "uint256 ID of the token to query the approval of"
        },
        "return": "address currently approved for the given token ID"
      },
      "isApprovedForAll(address,address)": {
        "details": "Tells whether an operator is approved by a given owner.",
        "params": {
          "operator": "operator address which you want to query the approval of",
          "owner": "owner address which you want to query the approval of"
        },
        "return": "bool whether the given operator is approved by the given owner"
      },
      "isOwner()": {
        "details": "Returns true if the caller is the current owner."
      },
      "name()": {
        "details": "Gets the token name.",
        "return": "string representing the token name"
      },
      "owner()": {
        "details": "Returns the address of the current owner."
      },
      "ownerOf(uint256)": {
        "details": "Gets the owner of the specified token ID.",
        "params": {
          "tokenId": "uint256 ID of the token to query the owner of"
        },
        "return": "address currently marked as the owner of the given token ID"
      },
      "renounceOwnership()": {
        "details": "Leaves the contract without owner. It will not be possible to call `onlyOwner` functions anymore. Can only be called by the current owner.     * NOTE: Renouncing ownership will leave the contract without an owner, thereby removing any functionality that is only available to the owner."
      },
      "safeTransferFrom(address,address,uint256)": {
        "details": "Safely transfers the ownership of a given token ID to another address If the target address is a contract, it must implement {IERC721Receiver-onERC721Received}, which is called upon a safe transfer, and return the magic value `bytes4(keccak256(\"onERC721Received(address,address,uint256,bytes)\"))`; otherwise, the transfer is reverted. Requires the msg.sender to be the owner, approved, or operator",
        "params": {
          "from": "current owner of the token",
          "to": "address to receive the ownership of the given token ID",
          "tokenId": "uint256 ID of the token to be transferred"
        }
      },
      "safeTransferFrom(address,address,uint256,bytes)": {
        "details": "Safely transfers the ownership of a given token ID to another address If the target address is a contract, it must implement {IERC721Receiver-onERC721Received}, which is called upon a safe transfer, and return the magic value `bytes4(keccak256(\"onERC721Received(address,address,uint256,bytes)\"))`; otherwise, the transfer is reverted. Requires the _msgSender() to be the owner, approved, or operator",
        "params": {
          "_data": "bytes data to send along with a safe transfer check",
          "from": "current owner of the token",
          "to": "address to receive the ownership of the given token ID",
          "tokenId": "uint256 ID of the token to be transferred"
        }
      },
      "setApprovalForAll(address,bool)": {
        "details": "Sets or unsets the approval of a given operator An operator is allowed to transfer all tokens of the sender on their behalf.",
        "params": {
          "approved": "representing the status of the approval to be set",
          "to": "operator address to set the approval"
        }
      },
      "supportsInterface(bytes4)": {
        "details": "See {IERC165-supportsInterface}.     * Time complexity O(1), guaranteed to always use less than 30 000 gas."
      },
      "symbol()": {
        "details": "Gets the token symbol.",
        "return": "string representing the token symbol"
      },
      "tokenByIndex(uint256)": {
        "details": "Gets the token ID at a given index of all the tokens in this contract Reverts if the index is greater or equal to the total number of tokens.",
        "params": {
          "index": "uint256 representing the index to be accessed of the tokens list"
        },
        "return": "uint256 token ID at the given index of the tokens list"
      },
      "tokenOfOwnerByIndex(address,uint256)": {
        "details": "Gets the token ID at a given index of the tokens list of the requested owner.",
        "params": {
          "index": "uint256 representing the index to be accessed of the requested tokens list",
          "owner": "address owning the tokens list to be accessed"
        },
        "return": "uint256 token ID at the given index of the tokens list owned by the requested address"
      },
      "tokenURI(uint256)": {
        "details": "Returns an URI for a given token ID. Throws if the token ID does not exist. May return an empty string.",
        "params": {
          "tokenId": "uint256 ID of the token to query"
        }
      },
      "totalSupply()": {
        "details": "Gets the total amount of tokens stored by the contract.",
        "return": "uint256 representing the total amount of tokens"
      },
      "transferFrom(address,address,uint256)": {
        "details": "Transfers the ownership of a given token ID to another address. Usage of this method is discouraged, use {safeTransferFrom} whenever possible. Requires the msg.sender to be the owner, approved, or operator.",
        "params": {
          "from": "current owner of the token",
          "to": "address to receive the ownership of the given token ID",
          "tokenId": "uint256 ID of the token to be transferred"
        }
      },
      "transferOwnership(address)": {
        "details": "Transfers ownership of the contract to a new account (`newOwner`). Can only be called by the current owner."
      }
    }
  },
  "userdoc": {
    "methods": {}
  }
}