{
  "contractName": "Market",
  "abi": [
    {
      "inputs": [],
      "payable": false,
      "stateMutability": "nonpayable",
      "type": "constructor"
    },
    {
      "anonymous": false,
      "inputs": [
        {
          "indexed": true,
          "internalType": "address",
          "name": "_by",
          "type": "address"
        },
        {
          "indexed": false,
          "internalType": "uint256",
          "name": "_value",
          "type": "uint256"
        },
        {
          "indexed": false,
          "internalType": "uint256",
          "name": "_tokenId",
          "type": "uint256"
        }
      ],
      "name": "Listed",
      "type": "event"
    },
    {
      "anonymous": false,
      "inputs": [
        {
          "indexed": true,
          "internalType": "address",
          "name": "previousOwner",
          "type": "address"
        },
        {
          "indexed": true,
          "internalType": "address",
          "name": "newOwner",
          "type": "address"
        }
      ],
      "name": "OwnershipTransferred",
      "type": "event"
    },
    {
      "anonymous": false,
      "inputs": [
        {
          "indexed": true,
          "internalType": "address",
          "name": "_from",
          "type": "address"
        },
        {
          "indexed": true,
          "internalType": "address",
          "name": "_to",
          "type": "address"
        },
        {
          "indexed": false,
          "internalType": "uint256",
          "name": "_value",
          "type": "uint256"
        },
        {
          "indexed": false,
          "internalType": "uint256",
          "name": "_tokenId",
          "type": "uint256"
        }
      ],
      "name": "Sold",
      "type": "event"
    },
    {
      "constant": true,
      "inputs": [],
      "name": "isOwner",
      "outputs": [
        {
          "internalType": "bool",
          "name": "",
          "type": "bool"
        }
      ],
      "payable": false,
      "stateMutability": "view",
      "type": "function"
    },
    {
      "constant": false,
      "inputs": [
        {
          "internalType": "address",
          "name": "",
          "type": "address"
        },
        {
          "internalType": "address",
          "name": "",
          "type": "address"
        },
        {
          "internalType": "uint256",
          "name": "",
          "type": "uint256"
        },
        {
          "internalType": "bytes",
          "name": "",
          "type": "bytes"
        }
      ],
      "name": "onERC721Received",
      "outputs": [
        {
          "internalType": "bytes4",
          "name": "",
          "type": "bytes4"
        }
      ],
      "payable": false,
      "stateMutability": "nonpayable",
      "type": "function"
    },
    {
      "constant": true,
      "inputs": [],
      "name": "owner",
      "outputs": [
        {
          "internalType": "address",
          "name": "",
          "type": "address"
        }
      ],
      "payable": false,
      "stateMutability": "view",
      "type": "function"
    },
    {
      "constant": false,
      "inputs": [],
      "name": "renounceOwnership",
      "outputs": [],
      "payable": false,
      "stateMutability": "nonpayable",
      "type": "function"
    },
    {
      "constant": false,
      "inputs": [
        {
          "internalType": "address",
          "name": "newOwner",
          "type": "address"
        }
      ],
      "name": "transferOwnership",
      "outputs": [],
      "payable": false,
      "stateMutability": "nonpayable",
      "type": "function"
    },
    {
      "constant": false,
      "inputs": [
        {
          "internalType": "address",
          "name": "CMaddress",
          "type": "address"
        }
      ],
      "name": "setCMContract",
      "outputs": [],
      "payable": false,
      "stateMutability": "nonpayable",
      "type": "function"
    },
    {
      "constant": true,
      "inputs": [],
      "name": "getCMContract",
      "outputs": [
        {
          "internalType": "contract Cryptomon",
          "name": "",
          "type": "address"
        }
      ],
      "payable": false,
      "stateMutability": "view",
      "type": "function"
    },
    {
      "constant": true,
      "inputs": [],
      "name": "getListedTokens",
      "outputs": [
        {
          "internalType": "uint256[]",
          "name": "",
          "type": "uint256[]"
        }
      ],
      "payable": false,
      "stateMutability": "view",
      "type": "function"
    },
    {
      "constant": true,
      "inputs": [
        {
          "internalType": "uint256",
          "name": "tokenId",
          "type": "uint256"
        }
      ],
      "name": "getTokenPrice",
      "outputs": [
        {
          "internalType": "uint256",
          "name": "",
          "type": "uint256"
        }
      ],
      "payable": false,
      "stateMutability": "view",
      "type": "function"
    },
    {
      "constant": false,
      "inputs": [
        {
          "internalType": "uint256",
          "name": "tokenId",
          "type": "uint256"
        },
        {
          "internalType": "uint256",
          "name": "price",
          "type": "uint256"
        }
      ],
      "name": "listToken",
      "outputs": [],
      "payable": false,
      "stateMutability": "nonpayable",
      "type": "function"
    },
    {
      "constant": false,
      "inputs": [
        {
          "internalType": "uint256",
          "name": "tokenId",
          "type": "uint256"
        }
      ],
      "name": "buyToken",
      "outputs": [],
      "payable": true,
      "stateMutability": "payable",
      "type": "function"
    }
  ],
  "bytecode": "0x60806040526000600360146101000a81548160ff02191690831515021790555034801561002b57600080fd5b5061003a6100fa60201b60201c565b6000806101000a81548173ffffffffffffffffffffffffffffffffffffffff021916908373ffffffffffffffffffffffffffffffffffffffff1602179055506000809054906101000a900473ffffffffffffffffffffffffffffffffffffffff1673ffffffffffffffffffffffffffffffffffffffff16600073ffffffffffffffffffffffffffffffffffffffff167f8be0079c531659141344cd1fd0a4f28419497f9722a3daafe3b4186f6b6457e060405160405180910390a3610102565b600033905090565b611b3b806101116000396000f3fe60806040526004361061009c5760003560e01c806375c1631d1161006457806375c1631d1461030d5780638da5cb5b146103525780638f32d59b146103a9578063c457fb37146103d8578063e8c783aa14610427578063f2fde38b146104785761009c565b80631497b734146100a1578063150b7a02146100f85780632ba996a51461025c5780632d296bf1146102c8578063715018a6146102f6575b600080fd5b3480156100ad57600080fd5b506100b66104c9565b604051808273ffffffffffffffffffffffffffffffffffffffff1673ffffffffffffffffffffffffffffffffffffffff16815260200191505060405180910390f35b34801561010457600080fd5b506102086004803603608081101561011b57600080fd5b81019080803573ffffffffffffffffffffffffffffffffffffffff169060200190929190803573ffffffffffffffffffffffffffffffffffffffff169060200190929190803590602001909291908035906020019064010000000081111561018257600080fd5b82018360208201111561019457600080fd5b803590602001918460018302840111640100000000831117156101b657600080fd5b91908080601f016020809104026020016040519081016040528093929190818152602001838380828437600081840152601f19601f82011690508083019250505050505050919291929050505061056d565b60405180827bffffffffffffffffffffffffffffffffffffffffffffffffffffffff19167bffffffffffffffffffffffffffffffffffffffffffffffffffffffff1916815260200191505060405180910390f35b34801561026857600080fd5b50610271610581565b6040518080602001828103825283818151815260200191508051906020019060200280838360005b838110156102b4578082015181840152602081019050610299565b505050509050019250505060405180910390f35b6102f4600480360360208110156102de57600080fd5b81019080803590602001909291905050506105d9565b005b34801561030257600080fd5b5061030b610c48565b005b34801561031957600080fd5b506103506004803603604081101561033057600080fd5b810190808035906020019092919080359060200190929190505050610d81565b005b34801561035e57600080fd5b5061036761151b565b604051808273ffffffffffffffffffffffffffffffffffffffff1673ffffffffffffffffffffffffffffffffffffffff16815260200191505060405180910390f35b3480156103b557600080fd5b506103be611544565b604051808215151515815260200191505060405180910390f35b3480156103e457600080fd5b50610411600480360360208110156103fb57600080fd5b81019080803590602001909291905050506115a2565b6040518082815260200191505060405180910390f35b34801561043357600080fd5b506104766004803603602081101561044a57600080fd5b81019080803573ffffffffffffffffffffffffffffffffffffffff169060200190929190505050611658565b005b34801561048457600080fd5b506104c76004803603602081101561049b57600080fd5b81019080803573ffffffffffffffffffffffffffffffffffffffff169060200190929190505050611731565b005b60006104d3611544565b610545576040517f08c379a00000000000000000000000000000000000000000000000000000000081526004018080602001828103825260208152602001807f4f776e61626c653a2063616c6c6572206973206e6f7420746865206f776e657281525060200191505060405180910390fd5b600360009054906101000a900473ffffffffffffffffffffffffffffffffffffffff16905090565b600063150b7a0260e01b9050949350505050565b606060018054806020026020016040519081016040528092919081815260200182805480156105cf57602002820191906000526020600020905b8154815260200190600101908083116105bb575b5050505050905090565b6002600082815260200190815260200160002060020160009054906101000a900460ff16610652576040517f08c379a0000000000000000000000000000000000000000000000000000000008152600401808060200182810382526021815260200180611ac16021913960400191505060405180910390fd5b60026000828152602001908152602001600020600101543410156106de576040517f08c379a000000000000000000000000000000000000000000000000000000000815260040180806020018281038252600d8152602001807f6d6f6e6579203c2070726963650000000000000000000000000000000000000081525060200191505060405180910390fd5b600073ffffffffffffffffffffffffffffffffffffffff166002600083815260200190815260200160002060000160009054906101000a900473ffffffffffffffffffffffffffffffffffffffff1673ffffffffffffffffffffffffffffffffffffffff1614156108c657600360009054906101000a900473ffffffffffffffffffffffffffffffffffffffff1673ffffffffffffffffffffffffffffffffffffffff166342842e0e3033846040518463ffffffff1660e01b8152600401808473ffffffffffffffffffffffffffffffffffffffff1673ffffffffffffffffffffffffffffffffffffffff1681526020018373ffffffffffffffffffffffffffffffffffffffff1673ffffffffffffffffffffffffffffffffffffffff1681526020018281526020019350505050600060405180830381600087803b15801561082657600080fd5b505af115801561083a573d6000803e3d6000fd5b505050503373ffffffffffffffffffffffffffffffffffffffff163073ffffffffffffffffffffffffffffffffffffffff167f16dd16959a056953a63cf14bf427881e762e54f03d86b864efea8238dd3b822f600260008581526020019081526020016000206001015484604051808381526020018281526020019250505060405180910390a3610b3e565b600360009054906101000a900473ffffffffffffffffffffffffffffffffffffffff1673ffffffffffffffffffffffffffffffffffffffff166342842e0e6002600084815260200190815260200160002060000160009054906101000a900473ffffffffffffffffffffffffffffffffffffffff1633846040518463ffffffff1660e01b8152600401808473ffffffffffffffffffffffffffffffffffffffff1673ffffffffffffffffffffffffffffffffffffffff1681526020018373ffffffffffffffffffffffffffffffffffffffff1673ffffffffffffffffffffffffffffffffffffffff1681526020018281526020019350505050600060405180830381600087803b1580156109d957600080fd5b505af11580156109ed573d6000803e3d6000fd5b505050506002600082815260200190815260200160002060000160009054906101000a900473ffffffffffffffffffffffffffffffffffffffff1673ffffffffffffffffffffffffffffffffffffffff166108fc60026000848152602001908152602001600020600101549081150290604051600060405180830381858888f19350505050158015610a83573d6000803e3d6000fd5b503373ffffffffffffffffffffffffffffffffffffffff166002600083815260200190815260200160002060000160009054906101000a900473ffffffffffffffffffffffffffffffffffffffff1673ffffffffffffffffffffffffffffffffffffffff167f16dd16959a056953a63cf14bf427881e762e54f03d86b864efea8238dd3b822f600260008581526020019081526020016000206001015484604051808381526020018281526020019250505060405180910390a35b6040518060600160405280600073ffffffffffffffffffffffffffffffffffffffff16815260200160008152602001600015158152506002600083815260200190815260200160002060008201518160000160006101000a81548173ffffffffffffffffffffffffffffffffffffffff021916908373ffffffffffffffffffffffffffffffffffffffff1602179055506020820151816001015560408201518160020160006101000a81548160ff02191690831515021790555090505060008090505b600180549050811015610c44578160018281548110610c1c57fe5b90600052602060002001541415610c3757610c36816117b7565b5b8080600101915050610c01565b5050565b610c50611544565b610cc2576040517f08c379a00000000000000000000000000000000000000000000000000000000081526004018080602001828103825260208152602001807f4f776e61626c653a2063616c6c6572206973206e6f7420746865206f776e657281525060200191505060405180910390fd5b600073ffffffffffffffffffffffffffffffffffffffff166000809054906101000a900473ffffffffffffffffffffffffffffffffffffffff1673ffffffffffffffffffffffffffffffffffffffff167f8be0079c531659141344cd1fd0a4f28419497f9722a3daafe3b4186f6b6457e060405160405180910390a360008060006101000a81548173ffffffffffffffffffffffffffffffffffffffff021916908373ffffffffffffffffffffffffffffffffffffffff160217905550565b600360149054906101000a900460ff16610de6576040517f08c379a0000000000000000000000000000000000000000000000000000000008152600401808060200182810382526030815260200180611a6b6030913960400191505060405180910390fd5b3073ffffffffffffffffffffffffffffffffffffffff16600360009054906101000a900473ffffffffffffffffffffffffffffffffffffffff1673ffffffffffffffffffffffffffffffffffffffff1663081812fc846040518263ffffffff1660e01b81526004018082815260200191505060206040518083038186803b158015610e7057600080fd5b505afa158015610e84573d6000803e3d6000fd5b505050506040513d6020811015610e9a57600080fd5b810190808051906020019092919050505073ffffffffffffffffffffffffffffffffffffffff161480610fa557503073ffffffffffffffffffffffffffffffffffffffff16600360009054906101000a900473ffffffffffffffffffffffffffffffffffffffff1673ffffffffffffffffffffffffffffffffffffffff16636352211e846040518263ffffffff1660e01b81526004018082815260200191505060206040518083038186803b158015610f5257600080fd5b505afa158015610f66573d6000803e3d6000fd5b505050506040513d6020811015610f7c57600080fd5b810190808051906020019092919050505073ffffffffffffffffffffffffffffffffffffffff16145b610ffa576040517f08c379a0000000000000000000000000000000000000000000000000000000008152600401808060200182810382526029815260200180611a426029913960400191505060405180910390fd5b600360009054906101000a900473ffffffffffffffffffffffffffffffffffffffff1673ffffffffffffffffffffffffffffffffffffffff16636352211e836040518263ffffffff1660e01b81526004018082815260200191505060206040518083038186803b15801561106d57600080fd5b505afa158015611081573d6000803e3d6000fd5b505050506040513d602081101561109757600080fd5b810190808051906020019092919050505073ffffffffffffffffffffffffffffffffffffffff163373ffffffffffffffffffffffffffffffffffffffff1614806111b957503073ffffffffffffffffffffffffffffffffffffffff16600360009054906101000a900473ffffffffffffffffffffffffffffffffffffffff1673ffffffffffffffffffffffffffffffffffffffff16636352211e846040518263ffffffff1660e01b81526004018082815260200191505060206040518083038186803b15801561116657600080fd5b505afa15801561117a573d6000803e3d6000fd5b505050506040513d602081101561119057600080fd5b810190808051906020019092919050505073ffffffffffffffffffffffffffffffffffffffff16145b61120e576040517f08c379a0000000000000000000000000000000000000000000000000000000008152600401808060200182810382526025815260200180611ae26025913960400191505060405180910390fd5b6002600083815260200190815260200160002060020160009054906101000a900460ff166112635760018290806001815401808255809150509060018203906000526020600020016000909192909190915055505b3073ffffffffffffffffffffffffffffffffffffffff16600360009054906101000a900473ffffffffffffffffffffffffffffffffffffffff1673ffffffffffffffffffffffffffffffffffffffff16636352211e846040518263ffffffff1660e01b81526004018082815260200191505060206040518083038186803b1580156112ed57600080fd5b505afa158015611301573d6000803e3d6000fd5b505050506040513d602081101561131757600080fd5b810190808051906020019092919050505073ffffffffffffffffffffffffffffffffffffffff161415611405576040518060600160405280600073ffffffffffffffffffffffffffffffffffffffff168152602001828152602001600115158152506002600084815260200190815260200160002060008201518160000160006101000a81548173ffffffffffffffffffffffffffffffffffffffff021916908373ffffffffffffffffffffffffffffffffffffffff1602179055506020820151816001015560408201518160020160006101000a81548160ff0219169083151502179055509050506114c1565b60405180606001604052803373ffffffffffffffffffffffffffffffffffffffff168152602001828152602001600115158152506002600084815260200190815260200160002060008201518160000160006101000a81548173ffffffffffffffffffffffffffffffffffffffff021916908373ffffffffffffffffffffffffffffffffffffffff1602179055506020820151816001015560408201518160020160006101000a81548160ff0219169083151502179055509050505b3373ffffffffffffffffffffffffffffffffffffffff167f6e16e8064e3c8254cef11e01e152416398602d7e8785f743f1c2f93a9a15ff358284604051808381526020018281526020019250505060405180910390a25050565b60008060009054906101000a900473ffffffffffffffffffffffffffffffffffffffff16905090565b60008060009054906101000a900473ffffffffffffffffffffffffffffffffffffffff1673ffffffffffffffffffffffffffffffffffffffff166115866118a4565b73ffffffffffffffffffffffffffffffffffffffff1614905090565b60006002600083815260200190815260200160002060020160009054906101000a900460ff1661163a576040517f08c379a00000000000000000000000000000000000000000000000000000000081526004018080602001828103825260198152602001807f546f6b656e206e6f74206c697374656420666f722073616c650000000000000081525060200191505060405180910390fd5b60026000838152602001908152602001600020600101549050919050565b611660611544565b6116d2576040517f08c379a00000000000000000000000000000000000000000000000000000000081526004018080602001828103825260208152602001807f4f776e61626c653a2063616c6c6572206973206e6f7420746865206f776e657281525060200191505060405180910390fd5b80600360006101000a81548173ffffffffffffffffffffffffffffffffffffffff021916908373ffffffffffffffffffffffffffffffffffffffff1602179055506001600360146101000a81548160ff02191690831515021790555050565b611739611544565b6117ab576040517f08c379a00000000000000000000000000000000000000000000000000000000081526004018080602001828103825260208152602001807f4f776e61626c653a2063616c6c6572206973206e6f7420746865206f776e657281525060200191505060405180910390fd5b6117b4816118ac565b50565b6001805490508110611831576040517f08c379a000000000000000000000000000000000000000000000000000000000815260040180806020018281038252601b8152602001807f496d70726f70657220696e64657820666f722064656c6574696e67000000000081525060200191505060405180910390fd5b6001808080549050038154811061184457fe5b90600052602060002001546001828154811061185c57fe5b90600052602060002001819055506001808080549050038154811061187d57fe5b906000526020600020016000905560018054809190600190036118a091906119f0565b5050565b600033905090565b600073ffffffffffffffffffffffffffffffffffffffff168173ffffffffffffffffffffffffffffffffffffffff161415611932576040517f08c379a0000000000000000000000000000000000000000000000000000000008152600401808060200182810382526026815260200180611a9b6026913960400191505060405180910390fd5b8073ffffffffffffffffffffffffffffffffffffffff166000809054906101000a900473ffffffffffffffffffffffffffffffffffffffff1673ffffffffffffffffffffffffffffffffffffffff167f8be0079c531659141344cd1fd0a4f28419497f9722a3daafe3b4186f6b6457e060405160405180910390a3806000806101000a81548173ffffffffffffffffffffffffffffffffffffffff021916908373ffffffffffffffffffffffffffffffffffffffff16021790555050565b815481835581811115611a1757818360005260206000209182019101611a169190611a1c565b5b505050565b611a3e91905b80821115611a3a576000816000905550600101611a22565b5090565b9056fe546865204d61726b6574206973206e6f7420617070726f76656420666f72207468697320746f6b656e54686520434d436f6e7472616374206164647265737320686173206e6f74206265656e207365742070726f7065726c794f776e61626c653a206e6577206f776e657220697320746865207a65726f20616464726573735468697320746f6b656e206973206e6f74206c697374656420666f722073616c65547279696e6720746f2073656c6c206120746f6b656e20796f7520646f206e6f74206f776ea265627a7a7231582027e379117ae5132a3cfd5952ffa47250c3c1ace8db5839befe3456feca1ce3df64736f6c63430005100032",
  "source": "pragma solidity ^0.5.1;\n\nimport \"openzeppelin-solidity/contracts/token/ERC721/ERC721Holder.sol\";\nimport \"openzeppelin-solidity/contracts/ownership/Ownable.sol\";\nimport \"./Cryptomon.sol\";\n\ncontract Market is ERC721Holder, Ownable {\n    event Sold(\n        address indexed _from,\n        address indexed _to,\n        uint256 _value,\n        uint256 _tokenId\n    );\n    event Listed(address indexed _by, uint256 _value, uint256 _tokenId);\n    struct SellerInfo {\n        address payable seller;\n        uint256 price;\n        bool isSet;\n    }\n    uint256[] private listedTokens;\n    mapping(uint256 => SellerInfo) private sellers;\n\n    Cryptomon private CMContract;\n    bool private CMCisSet = false;\n\n    constructor() public ERC721Holder() Ownable() {}\n\n    function setCMContract(address CMaddress) external onlyOwner() {\n        CMContract = Cryptomon(CMaddress);\n        CMCisSet = true;\n    }\n\n    function getCMContract() public view onlyOwner() returns (Cryptomon) {\n        return CMContract;\n    }\n    function getListedTokens() public view returns (uint256[] memory) {\n        return listedTokens;\n    }\n    function getTokenPrice(uint256 tokenId) public view returns (uint256) {\n        require(sellers[tokenId].isSet, \"Token not listed for sale\");\n        return sellers[tokenId].price;\n    }\n\n    function listToken(uint256 tokenId, uint256 price) public {\n        require(CMCisSet, \"The CMContract address has not been set properly\");\n        require(\n            CMContract.getApproved(tokenId) == address(this) ||\n                CMContract.ownerOf(tokenId) == address(this),\n            \"The Market is not approved for this token\"\n        );\n        require(\n            msg.sender == CMContract.ownerOf(tokenId) ||\n                CMContract.ownerOf(tokenId) == address(this),\n            \"Trying to sell a token you do not own\"\n        );\n        if (!sellers[tokenId].isSet) {\n            listedTokens.push(tokenId);\n        }\n        if (CMContract.ownerOf(tokenId) == address(this)) {\n            sellers[tokenId] = SellerInfo(address(0), price, true);\n        } else {\n            sellers[tokenId] = SellerInfo(msg.sender, price, true);\n        }\n\n        emit Listed(msg.sender, price, tokenId);\n    }\n\n    function _deleteListedToken(uint256 index) internal {\n        require(index < listedTokens.length, \"Improper index for deleting\");\n        listedTokens[index] = listedTokens[listedTokens.length - 1];\n        delete listedTokens[listedTokens.length - 1];\n        listedTokens.length--;\n    }\n\n    function buyToken(uint256 tokenId) public payable {\n        require(sellers[tokenId].isSet, \"This token is not listed for sale\");\n        require(msg.value >= sellers[tokenId].price, \"money < price\");\n        if (sellers[tokenId].seller == address(0)) {\n            CMContract.safeTransferFrom(address(this), msg.sender, tokenId);\n            //owner().transfer(sellers[tokenId].price);\n            emit Sold(\n                address(this),\n                msg.sender,\n                sellers[tokenId].price,\n                tokenId\n            );\n        } else {\n            CMContract.safeTransferFrom(\n                sellers[tokenId].seller,\n                msg.sender,\n                tokenId\n            );\n            sellers[tokenId].seller.transfer(sellers[tokenId].price);\n            emit Sold(\n                sellers[tokenId].seller,\n                msg.sender,\n                sellers[tokenId].price,\n                tokenId\n            );\n        }\n\n        sellers[tokenId] = SellerInfo(address(0), 0, false);\n        for (uint256 i = 0; i < listedTokens.length; i++) {\n            if (listedTokens[i] == tokenId) {\n                _deleteListedToken(i);\n            }\n        }\n\n    }\n}\n",
  "sourcePath": "/Users/arthurdepasse/Documents/Imperial Courses/PDL/cryptomons/contracts/Market.sol",
  "compiler": {
    "name": "solc",
    "version": "0.5.16+commit.9c3226ce.Emscripten.clang"
  },
  "schemaVersion": "3.0.21",
  "updatedAt": "2020-01-25T20:46:50.429Z",
  "networkType": "ethereum",
  "devdoc": {
    "methods": {
      "isOwner()": {
        "details": "Returns true if the caller is the current owner."
      },
      "owner()": {
        "details": "Returns the address of the current owner."
      },
      "renounceOwnership()": {
        "details": "Leaves the contract without owner. It will not be possible to call `onlyOwner` functions anymore. Can only be called by the current owner.     * NOTE: Renouncing ownership will leave the contract without an owner, thereby removing any functionality that is only available to the owner."
      },
      "transferOwnership(address)": {
        "details": "Transfers ownership of the contract to a new account (`newOwner`). Can only be called by the current owner."
      }
    }
  },
  "userdoc": {
    "methods": {}
  }
}