{
  "contractName": "Market",
  "abi": [
    {
      "inputs": [],
      "payable": false,
      "stateMutability": "nonpayable",
      "type": "constructor"
    },
    {
      "anonymous": false,
      "inputs": [
        {
          "indexed": true,
          "internalType": "address",
          "name": "_by",
          "type": "address"
        },
        {
          "indexed": false,
          "internalType": "uint256",
          "name": "_value",
          "type": "uint256"
        },
        {
          "indexed": false,
          "internalType": "uint256",
          "name": "_tokenId",
          "type": "uint256"
        }
      ],
      "name": "Listed",
      "type": "event"
    },
    {
      "anonymous": false,
      "inputs": [
        {
          "indexed": true,
          "internalType": "address",
          "name": "previousOwner",
          "type": "address"
        },
        {
          "indexed": true,
          "internalType": "address",
          "name": "newOwner",
          "type": "address"
        }
      ],
      "name": "OwnershipTransferred",
      "type": "event"
    },
    {
      "anonymous": false,
      "inputs": [
        {
          "indexed": true,
          "internalType": "address",
          "name": "_from",
          "type": "address"
        },
        {
          "indexed": true,
          "internalType": "address",
          "name": "_to",
          "type": "address"
        },
        {
          "indexed": false,
          "internalType": "uint256",
          "name": "_value",
          "type": "uint256"
        },
        {
          "indexed": false,
          "internalType": "uint256",
          "name": "_tokenId",
          "type": "uint256"
        }
      ],
      "name": "Sold",
      "type": "event"
    },
    {
      "anonymous": false,
      "inputs": [
        {
          "indexed": true,
          "internalType": "address",
          "name": "_by",
          "type": "address"
        },
        {
          "indexed": false,
          "internalType": "uint256",
          "name": "_tokenId",
          "type": "uint256"
        }
      ],
      "name": "Unlisted",
      "type": "event"
    },
    {
      "constant": true,
      "inputs": [],
      "name": "isOwner",
      "outputs": [
        {
          "internalType": "bool",
          "name": "",
          "type": "bool"
        }
      ],
      "payable": false,
      "stateMutability": "view",
      "type": "function"
    },
    {
      "constant": false,
      "inputs": [
        {
          "internalType": "address",
          "name": "",
          "type": "address"
        },
        {
          "internalType": "address",
          "name": "",
          "type": "address"
        },
        {
          "internalType": "uint256",
          "name": "",
          "type": "uint256"
        },
        {
          "internalType": "bytes",
          "name": "",
          "type": "bytes"
        }
      ],
      "name": "onERC721Received",
      "outputs": [
        {
          "internalType": "bytes4",
          "name": "",
          "type": "bytes4"
        }
      ],
      "payable": false,
      "stateMutability": "nonpayable",
      "type": "function"
    },
    {
      "constant": true,
      "inputs": [],
      "name": "owner",
      "outputs": [
        {
          "internalType": "address",
          "name": "",
          "type": "address"
        }
      ],
      "payable": false,
      "stateMutability": "view",
      "type": "function"
    },
    {
      "constant": false,
      "inputs": [],
      "name": "renounceOwnership",
      "outputs": [],
      "payable": false,
      "stateMutability": "nonpayable",
      "type": "function"
    },
    {
      "constant": false,
      "inputs": [
        {
          "internalType": "address",
          "name": "newOwner",
          "type": "address"
        }
      ],
      "name": "transferOwnership",
      "outputs": [],
      "payable": false,
      "stateMutability": "nonpayable",
      "type": "function"
    },
    {
      "constant": false,
      "inputs": [
        {
          "internalType": "address",
          "name": "CMaddress",
          "type": "address"
        }
      ],
      "name": "setCMContract",
      "outputs": [],
      "payable": false,
      "stateMutability": "nonpayable",
      "type": "function"
    },
    {
      "constant": true,
      "inputs": [],
      "name": "getCMContract",
      "outputs": [
        {
          "internalType": "contract Cryptomon",
          "name": "",
          "type": "address"
        }
      ],
      "payable": false,
      "stateMutability": "view",
      "type": "function"
    },
    {
      "constant": true,
      "inputs": [],
      "name": "getListedTokens",
      "outputs": [
        {
          "internalType": "uint256[]",
          "name": "",
          "type": "uint256[]"
        }
      ],
      "payable": false,
      "stateMutability": "view",
      "type": "function"
    },
    {
      "constant": true,
      "inputs": [
        {
          "internalType": "uint256",
          "name": "tokenId",
          "type": "uint256"
        }
      ],
      "name": "getTokenPrice",
      "outputs": [
        {
          "internalType": "uint256",
          "name": "",
          "type": "uint256"
        }
      ],
      "payable": false,
      "stateMutability": "view",
      "type": "function"
    },
    {
      "constant": false,
      "inputs": [
        {
          "internalType": "uint256",
          "name": "tokenId",
          "type": "uint256"
        },
        {
          "internalType": "uint256",
          "name": "price",
          "type": "uint256"
        }
      ],
      "name": "listToken",
      "outputs": [],
      "payable": false,
      "stateMutability": "nonpayable",
      "type": "function"
    },
    {
      "constant": false,
      "inputs": [
        {
          "internalType": "uint256",
          "name": "tokenId",
          "type": "uint256"
        }
      ],
      "name": "unlistToken",
      "outputs": [],
      "payable": false,
      "stateMutability": "nonpayable",
      "type": "function"
    },
    {
      "constant": false,
      "inputs": [
        {
          "internalType": "uint256",
          "name": "tokenId",
          "type": "uint256"
        }
      ],
      "name": "buyToken",
      "outputs": [],
      "payable": true,
      "stateMutability": "payable",
      "type": "function"
    }
  ],
  "bytecode": "0x60806040526000600360146101000a81548160ff02191690831515021790555061002d61014860201b60201c565b600460006101000a81548173ffffffffffffffffffffffffffffffffffffffff021916908373ffffffffffffffffffffffffffffffffffffffff16021790555034801561007957600080fd5b5061008861017160201b60201c565b6000806101000a81548173ffffffffffffffffffffffffffffffffffffffff021916908373ffffffffffffffffffffffffffffffffffffffff1602179055506000809054906101000a900473ffffffffffffffffffffffffffffffffffffffff1673ffffffffffffffffffffffffffffffffffffffff16600073ffffffffffffffffffffffffffffffffffffffff167f8be0079c531659141344cd1fd0a4f28419497f9722a3daafe3b4186f6b6457e060405160405180910390a3610179565b60008060009054906101000a900473ffffffffffffffffffffffffffffffffffffffff16905090565b600033905090565b61232180620001896000396000f3fe6080604052600436106100a75760003560e01c80638da5cb5b116100645780638da5cb5b1461035d5780638f32d59b146103b4578063ad3a358c146103e3578063c457fb371461041e578063e8c783aa1461046d578063f2fde38b146104be576100a7565b80631497b734146100ac578063150b7a02146101035780632ba996a5146102675780632d296bf1146102d3578063715018a61461030157806375c1631d14610318575b600080fd5b3480156100b857600080fd5b506100c161050f565b604051808273ffffffffffffffffffffffffffffffffffffffff1673ffffffffffffffffffffffffffffffffffffffff16815260200191505060405180910390f35b34801561010f57600080fd5b506102136004803603608081101561012657600080fd5b81019080803573ffffffffffffffffffffffffffffffffffffffff169060200190929190803573ffffffffffffffffffffffffffffffffffffffff169060200190929190803590602001909291908035906020019064010000000081111561018d57600080fd5b82018360208201111561019f57600080fd5b803590602001918460018302840111640100000000831117156101c157600080fd5b91908080601f016020809104026020016040519081016040528093929190818152602001838380828437600081840152601f19601f8201169050808301925050505050505091929192905050506105b3565b60405180827bffffffffffffffffffffffffffffffffffffffffffffffffffffffff19167bffffffffffffffffffffffffffffffffffffffffffffffffffffffff1916815260200191505060405180910390f35b34801561027357600080fd5b5061027c6105c7565b6040518080602001828103825283818151815260200191508051906020019060200280838360005b838110156102bf5780820151818401526020810190506102a4565b505050509050019250505060405180910390f35b6102ff600480360360208110156102e957600080fd5b810190808035906020019092919050505061061f565b005b34801561030d57600080fd5b50610316610c3a565b005b34801561032457600080fd5b5061035b6004803603604081101561033b57600080fd5b810190808035906020019092919080359060200190929190505050610d73565b005b34801561036957600080fd5b5061037261158c565b604051808273ffffffffffffffffffffffffffffffffffffffff1673ffffffffffffffffffffffffffffffffffffffff16815260200191505060405180910390f35b3480156103c057600080fd5b506103c96115b5565b604051808215151515815260200191505060405180910390f35b3480156103ef57600080fd5b5061041c6004803603602081101561040657600080fd5b8101908080359060200190929190505050611613565b005b34801561042a57600080fd5b506104576004803603602081101561044157600080fd5b8101908080359060200190929190505050611cef565b6040518082815260200191505060405180910390f35b34801561047957600080fd5b506104bc6004803603602081101561049057600080fd5b81019080803573ffffffffffffffffffffffffffffffffffffffff169060200190929190505050611da5565b005b3480156104ca57600080fd5b5061050d600480360360208110156104e157600080fd5b81019080803573ffffffffffffffffffffffffffffffffffffffff169060200190929190505050611e7e565b005b60006105196115b5565b61058b576040517f08c379a00000000000000000000000000000000000000000000000000000000081526004018080602001828103825260208152602001807f4f776e61626c653a2063616c6c6572206973206e6f7420746865206f776e657281525060200191505060405180910390fd5b600360009054906101000a900473ffffffffffffffffffffffffffffffffffffffff16905090565b600063150b7a0260e01b9050949350505050565b6060600180548060200260200160405190810160405280929190818152602001828054801561061557602002820191906000526020600020905b815481526020019060010190808311610601575b5050505050905090565b6002600082815260200190815260200160002060020160009054906101000a900460ff16610698576040517f08c379a00000000000000000000000000000000000000000000000000000000081526004018080602001828103825260218152602001806122816021913960400191505060405180910390fd5b6002600082815260200190815260200160002060010154341015610724576040517f08c379a000000000000000000000000000000000000000000000000000000000815260040180806020018281038252600d8152602001807f6d6f6e6579203c2070726963650000000000000000000000000000000000000081525060200191505060405180910390fd5b60006002600083815260200190815260200160002060010154905060006002600084815260200190815260200160002060000160009054906101000a900473ffffffffffffffffffffffffffffffffffffffff1690506107996002600085815260200190815260200160002060030154611f04565b6040518060800160405280600073ffffffffffffffffffffffffffffffffffffffff168152602001600081526020016000151581526020017fffffffffffffffffffffffffffffffffffffffffffffffffffffffffffffffff8152506002600085815260200190815260200160002060008201518160000160006101000a81548173ffffffffffffffffffffffffffffffffffffffff021916908373ffffffffffffffffffffffffffffffffffffffff1602179055506020820151816001015560408201518160020160006101000a81548160ff02191690831515021790555060608201518160030155905050600073ffffffffffffffffffffffffffffffffffffffff168173ffffffffffffffffffffffffffffffffffffffff161415610a8b57600360009054906101000a900473ffffffffffffffffffffffffffffffffffffffff1673ffffffffffffffffffffffffffffffffffffffff166342842e0e3033866040518463ffffffff1660e01b8152600401808473ffffffffffffffffffffffffffffffffffffffff1673ffffffffffffffffffffffffffffffffffffffff1681526020018373ffffffffffffffffffffffffffffffffffffffff1673ffffffffffffffffffffffffffffffffffffffff1681526020018281526020019350505050600060405180830381600087803b15801561099857600080fd5b505af11580156109ac573d6000803e3d6000fd5b50505050600460009054906101000a900473ffffffffffffffffffffffffffffffffffffffff1673ffffffffffffffffffffffffffffffffffffffff166108fc839081150290604051600060405180830381858888f19350505050158015610a18573d6000803e3d6000fd5b503373ffffffffffffffffffffffffffffffffffffffff163073ffffffffffffffffffffffffffffffffffffffff167f16dd16959a056953a63cf14bf427881e762e54f03d86b864efea8238dd3b822f8486604051808381526020018281526020019250505060405180910390a3610c35565b600360009054906101000a900473ffffffffffffffffffffffffffffffffffffffff1673ffffffffffffffffffffffffffffffffffffffff166342842e0e8233866040518463ffffffff1660e01b8152600401808473ffffffffffffffffffffffffffffffffffffffff1673ffffffffffffffffffffffffffffffffffffffff1681526020018373ffffffffffffffffffffffffffffffffffffffff1673ffffffffffffffffffffffffffffffffffffffff1681526020018281526020019350505050600060405180830381600087803b158015610b6857600080fd5b505af1158015610b7c573d6000803e3d6000fd5b505050508073ffffffffffffffffffffffffffffffffffffffff166108fc839081150290604051600060405180830381858888f19350505050158015610bc6573d6000803e3d6000fd5b503373ffffffffffffffffffffffffffffffffffffffff168173ffffffffffffffffffffffffffffffffffffffff167f16dd16959a056953a63cf14bf427881e762e54f03d86b864efea8238dd3b822f8486604051808381526020018281526020019250505060405180910390a35b505050565b610c426115b5565b610cb4576040517f08c379a00000000000000000000000000000000000000000000000000000000081526004018080602001828103825260208152602001807f4f776e61626c653a2063616c6c6572206973206e6f7420746865206f776e657281525060200191505060405180910390fd5b600073ffffffffffffffffffffffffffffffffffffffff166000809054906101000a900473ffffffffffffffffffffffffffffffffffffffff1673ffffffffffffffffffffffffffffffffffffffff167f8be0079c531659141344cd1fd0a4f28419497f9722a3daafe3b4186f6b6457e060405160405180910390a360008060006101000a81548173ffffffffffffffffffffffffffffffffffffffff021916908373ffffffffffffffffffffffffffffffffffffffff160217905550565b600360149054906101000a900460ff16610dd8576040517f08c379a00000000000000000000000000000000000000000000000000000000081526004018080602001828103825260308152602001806121b86030913960400191505060405180910390fd5b3073ffffffffffffffffffffffffffffffffffffffff16600360009054906101000a900473ffffffffffffffffffffffffffffffffffffffff1673ffffffffffffffffffffffffffffffffffffffff1663081812fc846040518263ffffffff1660e01b81526004018082815260200191505060206040518083038186803b158015610e6257600080fd5b505afa158015610e76573d6000803e3d6000fd5b505050506040513d6020811015610e8c57600080fd5b810190808051906020019092919050505073ffffffffffffffffffffffffffffffffffffffff161480610f9757503073ffffffffffffffffffffffffffffffffffffffff16600360009054906101000a900473ffffffffffffffffffffffffffffffffffffffff1673ffffffffffffffffffffffffffffffffffffffff16636352211e846040518263ffffffff1660e01b81526004018082815260200191505060206040518083038186803b158015610f4457600080fd5b505afa158015610f58573d6000803e3d6000fd5b505050506040513d6020811015610f6e57600080fd5b810190808051906020019092919050505073ffffffffffffffffffffffffffffffffffffffff16145b610fec576040517f08c379a000000000000000000000000000000000000000000000000000000000815260040180806020018281038252602981526020018061218f6029913960400191505060405180910390fd5b600360009054906101000a900473ffffffffffffffffffffffffffffffffffffffff1673ffffffffffffffffffffffffffffffffffffffff16636352211e836040518263ffffffff1660e01b81526004018082815260200191505060206040518083038186803b15801561105f57600080fd5b505afa158015611073573d6000803e3d6000fd5b505050506040513d602081101561108957600080fd5b810190808051906020019092919050505073ffffffffffffffffffffffffffffffffffffffff163373ffffffffffffffffffffffffffffffffffffffff1614806111ab57503073ffffffffffffffffffffffffffffffffffffffff16600360009054906101000a900473ffffffffffffffffffffffffffffffffffffffff1673ffffffffffffffffffffffffffffffffffffffff16636352211e846040518263ffffffff1660e01b81526004018082815260200191505060206040518083038186803b15801561115857600080fd5b505afa15801561116c573d6000803e3d6000fd5b505050506040513d602081101561118257600080fd5b810190808051906020019092919050505073ffffffffffffffffffffffffffffffffffffffff16145b611200576040517f08c379a00000000000000000000000000000000000000000000000000000000081526004018080602001828103825260258152602001806122a26025913960400191505060405180910390fd5b6002600083815260200190815260200160002060020160009054906101000a900460ff161561127a576040517f08c379a000000000000000000000000000000000000000000000000000000000815260040180806020018281038252602681526020018061220e6026913960400191505060405180910390fd5b60018290806001815401808255809150509060018203906000526020600020016000909192909190915055503073ffffffffffffffffffffffffffffffffffffffff16600360009054906101000a900473ffffffffffffffffffffffffffffffffffffffff1673ffffffffffffffffffffffffffffffffffffffff16636352211e846040518263ffffffff1660e01b81526004018082815260200191505060206040518083038186803b15801561133057600080fd5b505afa158015611344573d6000803e3d6000fd5b505050506040513d602081101561135a57600080fd5b810190808051906020019092919050505073ffffffffffffffffffffffffffffffffffffffff16141561145f576040518060800160405280600073ffffffffffffffffffffffffffffffffffffffff16815260200182815260200160011515815260200160018080549050038152506002600084815260200190815260200160002060008201518160000160006101000a81548173ffffffffffffffffffffffffffffffffffffffff021916908373ffffffffffffffffffffffffffffffffffffffff1602179055506020820151816001015560408201518160020160006101000a81548160ff02191690831515021790555060608201518160030155905050611532565b60405180608001604052803373ffffffffffffffffffffffffffffffffffffffff16815260200182815260200160011515815260200160018080549050038152506002600084815260200190815260200160002060008201518160000160006101000a81548173ffffffffffffffffffffffffffffffffffffffff021916908373ffffffffffffffffffffffffffffffffffffffff1602179055506020820151816001015560408201518160020160006101000a81548160ff021916908315150217905550606082015181600301559050505b3373ffffffffffffffffffffffffffffffffffffffff167f6e16e8064e3c8254cef11e01e152416398602d7e8785f743f1c2f93a9a15ff358284604051808381526020018281526020019250505060405180910390a25050565b60008060009054906101000a900473ffffffffffffffffffffffffffffffffffffffff16905090565b60008060009054906101000a900473ffffffffffffffffffffffffffffffffffffffff1673ffffffffffffffffffffffffffffffffffffffff166115f7611ff1565b73ffffffffffffffffffffffffffffffffffffffff1614905090565b600360149054906101000a900460ff16611678576040517f08c379a00000000000000000000000000000000000000000000000000000000081526004018080602001828103825260308152602001806121b86030913960400191505060405180910390fd5b6002600082815260200190815260200160002060020160009054906101000a900460ff166116f1576040517f08c379a000000000000000000000000000000000000000000000000000000000815260040180806020018281038252602681526020018061225b6026913960400191505060405180910390fd5b3073ffffffffffffffffffffffffffffffffffffffff16600360009054906101000a900473ffffffffffffffffffffffffffffffffffffffff1673ffffffffffffffffffffffffffffffffffffffff1663081812fc836040518263ffffffff1660e01b81526004018082815260200191505060206040518083038186803b15801561177b57600080fd5b505afa15801561178f573d6000803e3d6000fd5b505050506040513d60208110156117a557600080fd5b810190808051906020019092919050505073ffffffffffffffffffffffffffffffffffffffff1614806118b057503073ffffffffffffffffffffffffffffffffffffffff16600360009054906101000a900473ffffffffffffffffffffffffffffffffffffffff1673ffffffffffffffffffffffffffffffffffffffff16636352211e836040518263ffffffff1660e01b81526004018082815260200191505060206040518083038186803b15801561185d57600080fd5b505afa158015611871573d6000803e3d6000fd5b505050506040513d602081101561188757600080fd5b810190808051906020019092919050505073ffffffffffffffffffffffffffffffffffffffff16145b611905576040517f08c379a000000000000000000000000000000000000000000000000000000000815260040180806020018281038252602981526020018061218f6029913960400191505060405180910390fd5b600360009054906101000a900473ffffffffffffffffffffffffffffffffffffffff1673ffffffffffffffffffffffffffffffffffffffff16636352211e826040518263ffffffff1660e01b81526004018082815260200191505060206040518083038186803b15801561197857600080fd5b505afa15801561198c573d6000803e3d6000fd5b505050506040513d60208110156119a257600080fd5b810190808051906020019092919050505073ffffffffffffffffffffffffffffffffffffffff163373ffffffffffffffffffffffffffffffffffffffff161480611ac457503073ffffffffffffffffffffffffffffffffffffffff16600360009054906101000a900473ffffffffffffffffffffffffffffffffffffffff1673ffffffffffffffffffffffffffffffffffffffff16636352211e836040518263ffffffff1660e01b81526004018082815260200191505060206040518083038186803b158015611a7157600080fd5b505afa158015611a85573d6000803e3d6000fd5b505050506040513d6020811015611a9b57600080fd5b810190808051906020019092919050505073ffffffffffffffffffffffffffffffffffffffff16145b611b19576040517f08c379a00000000000000000000000000000000000000000000000000000000081526004018080602001828103825260278152602001806122346027913960400191505060405180910390fd5b6002600082815260200190815260200160002060020160009054906101000a900460ff16611b92576040517f08c379a00000000000000000000000000000000000000000000000000000000081526004018080602001828103825260268152602001806122c76026913960400191505060405180910390fd5b611bb16002600083815260200190815260200160002060030154611f04565b6040518060800160405280600073ffffffffffffffffffffffffffffffffffffffff168152602001600081526020016000151581526020017fffffffffffffffffffffffffffffffffffffffffffffffffffffffffffffffff8152506002600083815260200190815260200160002060008201518160000160006101000a81548173ffffffffffffffffffffffffffffffffffffffff021916908373ffffffffffffffffffffffffffffffffffffffff1602179055506020820151816001015560408201518160020160006101000a81548160ff021916908315150217905550606082015181600301559050503373ffffffffffffffffffffffffffffffffffffffff167fd1b3de83f2e838a8b6eb09447f2316d7bfd1a64d0059abe8f1160f490616fd83826040518082815260200191505060405180910390a250565b60006002600083815260200190815260200160002060020160009054906101000a900460ff16611d87576040517f08c379a00000000000000000000000000000000000000000000000000000000081526004018080602001828103825260198152602001807f546f6b656e206e6f74206c697374656420666f722073616c650000000000000081525060200191505060405180910390fd5b60026000838152602001908152602001600020600101549050919050565b611dad6115b5565b611e1f576040517f08c379a00000000000000000000000000000000000000000000000000000000081526004018080602001828103825260208152602001807f4f776e61626c653a2063616c6c6572206973206e6f7420746865206f776e657281525060200191505060405180910390fd5b80600360006101000a81548173ffffffffffffffffffffffffffffffffffffffff021916908373ffffffffffffffffffffffffffffffffffffffff1602179055506001600360146101000a81548160ff02191690831515021790555050565b611e866115b5565b611ef8576040517f08c379a00000000000000000000000000000000000000000000000000000000081526004018080602001828103825260208152602001807f4f776e61626c653a2063616c6c6572206973206e6f7420746865206f776e657281525060200191505060405180910390fd5b611f0181611ff9565b50565b6001805490508110611f7e576040517f08c379a000000000000000000000000000000000000000000000000000000000815260040180806020018281038252601b8152602001807f496d70726f70657220696e64657820666f722064656c6574696e67000000000081525060200191505060405180910390fd5b60018080805490500381548110611f9157fe5b906000526020600020015460018281548110611fa957fe5b906000526020600020018190555060018080805490500381548110611fca57fe5b90600052602060002001600090556001805480919060019003611fed919061213d565b5050565b600033905090565b600073ffffffffffffffffffffffffffffffffffffffff168173ffffffffffffffffffffffffffffffffffffffff16141561207f576040517f08c379a00000000000000000000000000000000000000000000000000000000081526004018080602001828103825260268152602001806121e86026913960400191505060405180910390fd5b8073ffffffffffffffffffffffffffffffffffffffff166000809054906101000a900473ffffffffffffffffffffffffffffffffffffffff1673ffffffffffffffffffffffffffffffffffffffff167f8be0079c531659141344cd1fd0a4f28419497f9722a3daafe3b4186f6b6457e060405160405180910390a3806000806101000a81548173ffffffffffffffffffffffffffffffffffffffff021916908373ffffffffffffffffffffffffffffffffffffffff16021790555050565b815481835581811115612164578183600052602060002091820191016121639190612169565b5b505050565b61218b91905b8082111561218757600081600090555060010161216f565b5090565b9056fe546865204d61726b6574206973206e6f7420617070726f76656420666f72207468697320746f6b656e54686520434d436f6e7472616374206164647265737320686173206e6f74206265656e207365742070726f7065726c794f776e61626c653a206e6577206f776e657220697320746865207a65726f20616464726573735468697320746f6b656e20697320616c7265616479206c6973746564206f6e206d61726b6574547279696e6720746f20756e6c697374206120746f6b656e20796f7520646f206e6f74206f776e5468697320746f6b656e206973206e6f74206c6973746564206f6e20746865206d61726b65745468697320746f6b656e206973206e6f74206c697374656420666f722073616c65547279696e6720746f2073656c6c206120746f6b656e20796f7520646f206e6f74206f776e5468697320746f6b656e206973206e6f7420796574206c6973746564206f6e206d61726b6574a265627a7a72315820f98adf2b057e89057e871250073b3916904bb28ce6201b9ca01f2c7cec9b36dd64736f6c634300050c0032",
  "source": "pragma solidity ^0.5.1;\n\nimport \"openzeppelin-solidity/contracts/token/ERC721/ERC721Holder.sol\";\nimport \"openzeppelin-solidity/contracts/ownership/Ownable.sol\";\nimport \"./Cryptomon.sol\";\n\ncontract Market is ERC721Holder, Ownable {\n    // events to emit\n    event Sold(\n        address indexed _from,\n        address indexed _to,\n        uint256 _value,\n        uint256 _tokenId\n    );\n    event Listed(address indexed _by, uint256 _value, uint256 _tokenId);\n    event Unlisted(address indexed _by, uint256 _tokenId);\n\n    // structs\n    struct SellerInfo {\n        address payable seller;\n        uint256 price;\n        bool isSet;\n        int256 arrayIndex;\n    }\n\n    //variables\n    uint256[] private listedTokens;\n    mapping(uint256 => SellerInfo) private sellers;\n\n    Cryptomon private CMContract;\n    bool private CMCisSet = false;\n    //cast owner address to payable\n    address payable ownerP = address(uint160(owner()));\n\n    // functions\n    constructor() public ERC721Holder() Ownable() {}\n\n    function setCMContract(address CMaddress) external onlyOwner() {\n        CMContract = Cryptomon(CMaddress);\n        CMCisSet = true;\n    }\n\n    function getCMContract() public view onlyOwner() returns (Cryptomon) {\n        return CMContract;\n    }\n    function getListedTokens() public view returns (uint256[] memory) {\n        return listedTokens;\n    }\n    function getTokenPrice(uint256 tokenId) public view returns (uint256) {\n        require(sellers[tokenId].isSet, \"Token not listed for sale\");\n        return sellers[tokenId].price;\n    }\n\n    function listToken(uint256 tokenId, uint256 price) public {\n        require(CMCisSet, \"The CMContract address has not been set properly\");\n        require(\n            CMContract.getApproved(tokenId) == address(this) ||\n                CMContract.ownerOf(tokenId) == address(this),\n            \"The Market is not approved for this token\"\n        );\n        require(\n            msg.sender == CMContract.ownerOf(tokenId) ||\n                CMContract.ownerOf(tokenId) == address(this),\n            \"Trying to sell a token you do not own\"\n        );\n        require(\n            !sellers[tokenId].isSet,\n            \"This token is already listed on market\"\n        );\n\n        listedTokens.push(tokenId);\n        if (CMContract.ownerOf(tokenId) == address(this)) {\n            sellers[tokenId] = SellerInfo(\n                address(0),\n                price,\n                true,\n                int256(listedTokens.length - 1)\n            );\n        } else {\n            sellers[tokenId] = SellerInfo(\n                msg.sender,\n                price,\n                true,\n                int256(listedTokens.length - 1)\n            );\n        }\n\n        emit Listed(msg.sender, price, tokenId);\n    }\n\n    function unlistToken(uint256 tokenId) public {\n        require(CMCisSet, \"The CMContract address has not been set properly\");\n        require(\n            sellers[tokenId].isSet,\n            \"This token is not listed on the market\"\n        );\n        require(\n            CMContract.getApproved(tokenId) == address(this) ||\n                CMContract.ownerOf(tokenId) == address(this),\n            \"The Market is not approved for this token\"\n        );\n        require(\n            msg.sender == CMContract.ownerOf(tokenId) ||\n                CMContract.ownerOf(tokenId) == address(this),\n            \"Trying to unlist a token you do not own\"\n        );\n        require(\n            sellers[tokenId].isSet,\n            \"This token is not yet listed on market\"\n        );\n\n        // the user should unapprove the market on this token afterwards\n        // as the contract cannot unapprove itself\n\n        // clean the token from the market state\n        _deleteListedToken(uint256(sellers[tokenId].arrayIndex));\n        sellers[tokenId] = SellerInfo(address(0), 0, false, -1);\n\n        emit Unlisted(msg.sender, tokenId);\n    }\n\n    function _deleteListedToken(uint256 index) internal {\n        require(index < listedTokens.length, \"Improper index for deleting\");\n        listedTokens[index] = listedTokens[listedTokens.length - 1];\n        delete listedTokens[listedTokens.length - 1];\n        listedTokens.length--;\n    }\n\n    function buyToken(uint256 tokenId) public payable {\n        require(sellers[tokenId].isSet, \"This token is not listed for sale\");\n        require(msg.value >= sellers[tokenId].price, \"money < price\");\n\n        uint256 price = sellers[tokenId].price;\n        address payable seller = sellers[tokenId].seller;\n\n        // reset state before performing transfer\n        _deleteListedToken(uint256(sellers[tokenId].arrayIndex));\n        sellers[tokenId] = SellerInfo(address(0), 0, false, -1);\n\n        if (seller == address(0)) {\n            // move tokens before performing transfer\n            // transfering token reset its approval properly\n            CMContract.safeTransferFrom(address(this), msg.sender, tokenId);\n            ownerP.transfer(price);\n            emit Sold(address(this), msg.sender, price, tokenId);\n        } else {\n            CMContract.safeTransferFrom(seller, msg.sender, tokenId);\n            seller.transfer(price);\n            emit Sold(seller, msg.sender, price, tokenId);\n        }\n\n    }\n}\n",
  "sourcePath": "/Users/arthurdepasse/Documents/Imperial Courses/PDL/cryptomons/contracts/Market.sol",
  "compiler": {
    "name": "solc",
    "version": "0.5.12+commit.7709ece9.Emscripten.clang"
  },
  "schemaVersion": "3.0.19",
  "updatedAt": "2020-02-06T16:49:26.014Z",
  "networkType": "ethereum",
  "devdoc": {
    "methods": {
      "isOwner()": {
        "details": "Returns true if the caller is the current owner."
      },
      "owner()": {
        "details": "Returns the address of the current owner."
      },
      "renounceOwnership()": {
        "details": "Leaves the contract without owner. It will not be possible to call `onlyOwner` functions anymore. Can only be called by the current owner.     * NOTE: Renouncing ownership will leave the contract without an owner, thereby removing any functionality that is only available to the owner."
      },
      "transferOwnership(address)": {
        "details": "Transfers ownership of the contract to a new account (`newOwner`). Can only be called by the current owner."
      }
    }
  },
  "userdoc": {
    "methods": {}
  }
}